{
  "_format": "hh-sol-artifact-1",
  "contractName": "NameWrapper",
  "sourceName": "contracts/wrapper/NameWrapper.sol",
  "abi": [
    {
      "inputs": [
        {
          "internalType": "contract ENS",
          "name": "_ens",
          "type": "address"
        },
        {
          "internalType": "contract IBaseRegistrar",
          "name": "_registrar",
          "type": "address"
        },
        {
          "internalType": "contract IMetadataService",
          "name": "_metadataService",
          "type": "address"
        }
      ],
      "stateMutability": "nonpayable",
      "type": "constructor"
    },
    {
      "inputs": [],
      "name": "CannotUpgrade",
      "type": "error"
    },
    {
      "inputs": [],
      "name": "IncompatibleParent",
      "type": "error"
    },
    {
      "inputs": [
        {
          "internalType": "address",
          "name": "owner",
          "type": "address"
        }
      ],
      "name": "IncorrectTargetOwner",
      "type": "error"
    },
    {
      "inputs": [],
      "name": "IncorrectTokenType",
      "type": "error"
    },
    {
      "inputs": [
        {
          "internalType": "bytes32",
          "name": "labelHash",
          "type": "bytes32"
        },
        {
          "internalType": "bytes32",
          "name": "expectedLabelhash",
          "type": "bytes32"
        }
      ],
      "name": "LabelMismatch",
      "type": "error"
    },
    {
      "inputs": [
        {
          "internalType": "string",
          "name": "label",
          "type": "string"
        }
      ],
      "name": "LabelTooLong",
      "type": "error"
    },
    {
      "inputs": [],
      "name": "LabelTooShort",
      "type": "error"
    },
    {
      "inputs": [],
      "name": "NameIsNotWrapped",
      "type": "error"
    },
    {
      "inputs": [
        {
          "internalType": "bytes32",
          "name": "node",
          "type": "bytes32"
        }
      ],
      "name": "OperationProhibited",
      "type": "error"
    },
    {
      "inputs": [
        {
          "internalType": "address",
          "name": "owner",
          "type": "address"
        }
      ],
      "name": "OwnableInvalidOwner",
      "type": "error"
    },
    {
      "inputs": [
        {
          "internalType": "address",
          "name": "account",
          "type": "address"
        }
      ],
      "name": "OwnableUnauthorizedAccount",
      "type": "error"
    },
    {
      "inputs": [
        {
          "internalType": "bytes32",
          "name": "node",
          "type": "bytes32"
        },
        {
          "internalType": "address",
          "name": "addr",
          "type": "address"
        }
      ],
      "name": "Unauthorised",
      "type": "error"
    },
    {
      "anonymous": false,
      "inputs": [
        {
          "indexed": true,
          "internalType": "address",
          "name": "owner",
          "type": "address"
        },
        {
          "indexed": true,
          "internalType": "address",
          "name": "approved",
          "type": "address"
        },
        {
          "indexed": true,
          "internalType": "uint256",
          "name": "tokenId",
          "type": "uint256"
        }
      ],
      "name": "Approval",
      "type": "event"
    },
    {
      "anonymous": false,
      "inputs": [
        {
          "indexed": true,
          "internalType": "address",
          "name": "account",
          "type": "address"
        },
        {
          "indexed": true,
          "internalType": "address",
          "name": "operator",
          "type": "address"
        },
        {
          "indexed": false,
          "internalType": "bool",
          "name": "approved",
          "type": "bool"
        }
      ],
      "name": "ApprovalForAll",
      "type": "event"
    },
    {
      "anonymous": false,
      "inputs": [
        {
          "indexed": true,
          "internalType": "address",
          "name": "controller",
          "type": "address"
        },
        {
          "indexed": false,
          "internalType": "bool",
          "name": "active",
          "type": "bool"
        }
      ],
      "name": "ControllerChanged",
      "type": "event"
    },
    {
      "anonymous": false,
      "inputs": [
        {
          "indexed": true,
          "internalType": "bytes32",
          "name": "node",
          "type": "bytes32"
        },
        {
          "indexed": false,
          "internalType": "uint64",
          "name": "expiry",
          "type": "uint64"
        }
      ],
      "name": "ExpiryExtended",
      "type": "event"
    },
    {
      "anonymous": false,
      "inputs": [
        {
          "indexed": true,
          "internalType": "bytes32",
          "name": "node",
          "type": "bytes32"
        },
        {
          "indexed": false,
          "internalType": "uint32",
          "name": "fuses",
          "type": "uint32"
        }
      ],
      "name": "FusesSet",
      "type": "event"
    },
    {
      "anonymous": false,
      "inputs": [
        {
          "indexed": true,
          "internalType": "bytes32",
          "name": "node",
          "type": "bytes32"
        },
        {
          "indexed": false,
          "internalType": "address",
          "name": "owner",
          "type": "address"
        }
      ],
      "name": "NameUnwrapped",
      "type": "event"
    },
    {
      "anonymous": false,
      "inputs": [
        {
          "indexed": true,
          "internalType": "bytes32",
          "name": "node",
          "type": "bytes32"
        },
        {
          "indexed": false,
          "internalType": "bytes",
          "name": "name",
          "type": "bytes"
        },
        {
          "indexed": false,
          "internalType": "address",
          "name": "owner",
          "type": "address"
        },
        {
          "indexed": false,
          "internalType": "uint32",
          "name": "fuses",
          "type": "uint32"
        },
        {
          "indexed": false,
          "internalType": "uint64",
          "name": "expiry",
          "type": "uint64"
        }
      ],
      "name": "NameWrapped",
      "type": "event"
    },
    {
      "anonymous": false,
      "inputs": [
        {
          "indexed": true,
          "internalType": "address",
          "name": "previousOwner",
          "type": "address"
        },
        {
          "indexed": true,
          "internalType": "address",
          "name": "newOwner",
          "type": "address"
        }
      ],
      "name": "OwnershipTransferred",
      "type": "event"
    },
    {
      "anonymous": false,
      "inputs": [
        {
          "indexed": true,
          "internalType": "address",
          "name": "operator",
          "type": "address"
        },
        {
          "indexed": true,
          "internalType": "address",
          "name": "from",
          "type": "address"
        },
        {
          "indexed": true,
          "internalType": "address",
          "name": "to",
          "type": "address"
        },
        {
          "indexed": false,
          "internalType": "uint256[]",
          "name": "ids",
          "type": "uint256[]"
        },
        {
          "indexed": false,
          "internalType": "uint256[]",
          "name": "values",
          "type": "uint256[]"
        }
      ],
      "name": "TransferBatch",
      "type": "event"
    },
    {
      "anonymous": false,
      "inputs": [
        {
          "indexed": true,
          "internalType": "address",
          "name": "operator",
          "type": "address"
        },
        {
          "indexed": true,
          "internalType": "address",
          "name": "from",
          "type": "address"
        },
        {
          "indexed": true,
          "internalType": "address",
          "name": "to",
          "type": "address"
        },
        {
          "indexed": false,
          "internalType": "uint256",
          "name": "id",
          "type": "uint256"
        },
        {
          "indexed": false,
          "internalType": "uint256",
          "name": "value",
          "type": "uint256"
        }
      ],
      "name": "TransferSingle",
      "type": "event"
    },
    {
      "anonymous": false,
      "inputs": [
        {
          "indexed": false,
          "internalType": "string",
          "name": "value",
          "type": "string"
        },
        {
          "indexed": true,
          "internalType": "uint256",
          "name": "id",
          "type": "uint256"
        }
      ],
      "name": "URI",
      "type": "event"
    },
    {
      "inputs": [
        {
          "internalType": "uint256",
          "name": "",
          "type": "uint256"
        }
      ],
      "name": "_tokens",
      "outputs": [
        {
          "internalType": "uint256",
          "name": "",
          "type": "uint256"
        }
      ],
      "stateMutability": "view",
      "type": "function"
    },
    {
      "inputs": [
        {
          "internalType": "bytes32",
          "name": "node",
          "type": "bytes32"
        },
        {
          "internalType": "uint32",
          "name": "fuseMask",
          "type": "uint32"
        }
      ],
      "name": "allFusesBurned",
      "outputs": [
        {
          "internalType": "bool",
          "name": "",
          "type": "bool"
        }
      ],
      "stateMutability": "view",
      "type": "function"
    },
    {
      "inputs": [
        {
          "internalType": "address",
          "name": "to",
          "type": "address"
        },
        {
          "internalType": "uint256",
          "name": "tokenId",
          "type": "uint256"
        }
      ],
      "name": "approve",
      "outputs": [],
      "stateMutability": "nonpayable",
      "type": "function"
    },
    {
      "inputs": [
        {
          "internalType": "address",
          "name": "account",
          "type": "address"
        },
        {
          "internalType": "uint256",
          "name": "id",
          "type": "uint256"
        }
      ],
      "name": "balanceOf",
      "outputs": [
        {
          "internalType": "uint256",
          "name": "",
          "type": "uint256"
        }
      ],
      "stateMutability": "view",
      "type": "function"
    },
    {
      "inputs": [
        {
          "internalType": "address[]",
          "name": "accounts",
          "type": "address[]"
        },
        {
          "internalType": "uint256[]",
          "name": "ids",
          "type": "uint256[]"
        }
      ],
      "name": "balanceOfBatch",
      "outputs": [
        {
          "internalType": "uint256[]",
          "name": "",
          "type": "uint256[]"
        }
      ],
      "stateMutability": "view",
      "type": "function"
    },
    {
      "inputs": [
        {
          "internalType": "bytes32",
          "name": "node",
          "type": "bytes32"
        },
        {
          "internalType": "address",
          "name": "addr",
          "type": "address"
        }
      ],
      "name": "canExtendSubnames",
      "outputs": [
        {
          "internalType": "bool",
          "name": "",
          "type": "bool"
        }
      ],
      "stateMutability": "view",
      "type": "function"
    },
    {
      "inputs": [
        {
          "internalType": "bytes32",
          "name": "node",
          "type": "bytes32"
        },
        {
          "internalType": "address",
          "name": "addr",
          "type": "address"
        }
      ],
      "name": "canModifyName",
      "outputs": [
        {
          "internalType": "bool",
          "name": "",
          "type": "bool"
        }
      ],
      "stateMutability": "view",
      "type": "function"
    },
    {
      "inputs": [
        {
          "internalType": "address",
          "name": "",
          "type": "address"
        }
      ],
      "name": "controllers",
      "outputs": [
        {
          "internalType": "bool",
          "name": "",
          "type": "bool"
        }
      ],
      "stateMutability": "view",
      "type": "function"
    },
    {
      "inputs": [],
      "name": "ens",
      "outputs": [
        {
          "internalType": "contract ENS",
          "name": "",
          "type": "address"
        }
      ],
      "stateMutability": "view",
      "type": "function"
    },
    {
      "inputs": [
        {
          "internalType": "bytes32",
          "name": "parentNode",
          "type": "bytes32"
        },
        {
          "internalType": "bytes32",
          "name": "labelhash",
          "type": "bytes32"
        },
        {
          "internalType": "uint64",
          "name": "expiry",
          "type": "uint64"
        }
      ],
      "name": "extendExpiry",
      "outputs": [
        {
          "internalType": "uint64",
          "name": "",
          "type": "uint64"
        }
      ],
      "stateMutability": "nonpayable",
      "type": "function"
    },
    {
      "inputs": [
        {
          "internalType": "uint256",
          "name": "id",
          "type": "uint256"
        }
      ],
      "name": "getApproved",
      "outputs": [
        {
          "internalType": "address",
          "name": "operator",
          "type": "address"
        }
      ],
      "stateMutability": "view",
      "type": "function"
    },
    {
      "inputs": [
        {
          "internalType": "uint256",
          "name": "id",
          "type": "uint256"
        }
      ],
      "name": "getData",
      "outputs": [
        {
          "internalType": "address",
          "name": "owner",
          "type": "address"
        },
        {
          "internalType": "uint32",
          "name": "fuses",
          "type": "uint32"
        },
        {
          "internalType": "uint64",
          "name": "expiry",
          "type": "uint64"
        }
      ],
      "stateMutability": "view",
      "type": "function"
    },
    {
      "inputs": [
        {
          "internalType": "address",
          "name": "account",
          "type": "address"
        },
        {
          "internalType": "address",
          "name": "operator",
          "type": "address"
        }
      ],
      "name": "isApprovedForAll",
      "outputs": [
        {
          "internalType": "bool",
          "name": "",
          "type": "bool"
        }
      ],
      "stateMutability": "view",
      "type": "function"
    },
    {
      "inputs": [
        {
          "internalType": "address",
          "name": "target",
          "type": "address"
        }
      ],
      "name": "isContract",
      "outputs": [
        {
          "internalType": "bool",
          "name": "_isContract",
          "type": "bool"
        }
      ],
      "stateMutability": "view",
      "type": "function"
    },
    {
      "inputs": [
        {
          "internalType": "bytes32",
          "name": "parentNode",
          "type": "bytes32"
        },
        {
          "internalType": "bytes32",
          "name": "labelhash",
          "type": "bytes32"
        }
      ],
      "name": "isWrapped",
      "outputs": [
        {
          "internalType": "bool",
          "name": "",
          "type": "bool"
        }
      ],
      "stateMutability": "view",
      "type": "function"
    },
    {
      "inputs": [
        {
          "internalType": "bytes32",
          "name": "node",
          "type": "bytes32"
        }
      ],
      "name": "isWrapped",
      "outputs": [
        {
          "internalType": "bool",
          "name": "",
          "type": "bool"
        }
      ],
      "stateMutability": "view",
      "type": "function"
    },
    {
      "inputs": [],
      "name": "metadataService",
      "outputs": [
        {
          "internalType": "contract IMetadataService",
          "name": "",
          "type": "address"
        }
      ],
      "stateMutability": "view",
      "type": "function"
    },
    {
      "inputs": [],
      "name": "name",
      "outputs": [
        {
          "internalType": "string",
          "name": "",
          "type": "string"
        }
      ],
      "stateMutability": "view",
      "type": "function"
    },
    {
      "inputs": [
        {
          "internalType": "bytes32",
          "name": "",
          "type": "bytes32"
        }
      ],
      "name": "names",
      "outputs": [
        {
          "internalType": "bytes",
          "name": "",
          "type": "bytes"
        }
      ],
      "stateMutability": "view",
      "type": "function"
    },
    {
      "inputs": [
        {
          "internalType": "address",
          "name": "to",
          "type": "address"
        },
        {
          "internalType": "address",
          "name": "",
          "type": "address"
        },
        {
          "internalType": "uint256",
          "name": "tokenId",
          "type": "uint256"
        },
        {
          "internalType": "bytes",
          "name": "data",
          "type": "bytes"
        }
      ],
      "name": "onERC721Received",
      "outputs": [
        {
          "internalType": "bytes4",
          "name": "",
          "type": "bytes4"
        }
      ],
      "stateMutability": "nonpayable",
      "type": "function"
    },
    {
      "inputs": [],
      "name": "owner",
      "outputs": [
        {
          "internalType": "address",
          "name": "",
          "type": "address"
        }
      ],
      "stateMutability": "view",
      "type": "function"
    },
    {
      "inputs": [
        {
          "internalType": "uint256",
          "name": "id",
          "type": "uint256"
        }
      ],
      "name": "ownerOf",
      "outputs": [
        {
          "internalType": "address",
          "name": "owner",
          "type": "address"
        }
      ],
      "stateMutability": "view",
      "type": "function"
    },
    {
      "inputs": [
        {
          "internalType": "address",
          "name": "_token",
          "type": "address"
        },
        {
          "internalType": "address",
          "name": "_to",
          "type": "address"
        },
        {
          "internalType": "uint256",
          "name": "_amount",
          "type": "uint256"
        }
      ],
      "name": "recoverFunds",
      "outputs": [],
      "stateMutability": "nonpayable",
      "type": "function"
    },
    {
      "inputs": [
        {
          "internalType": "string",
          "name": "label",
          "type": "string"
        },
        {
          "internalType": "address",
          "name": "wrappedOwner",
          "type": "address"
        },
        {
          "internalType": "uint256",
          "name": "duration",
          "type": "uint256"
        },
        {
          "internalType": "address",
          "name": "resolver",
          "type": "address"
        },
        {
          "internalType": "uint16",
          "name": "ownerControlledFuses",
          "type": "uint16"
        }
      ],
      "name": "registerAndWrapETH2LD",
      "outputs": [
        {
          "internalType": "uint256",
          "name": "registrarExpiry",
          "type": "uint256"
        }
      ],
      "stateMutability": "nonpayable",
      "type": "function"
    },
    {
      "inputs": [],
      "name": "registrar",
      "outputs": [
        {
          "internalType": "contract IBaseRegistrar",
          "name": "",
          "type": "address"
        }
      ],
      "stateMutability": "view",
      "type": "function"
    },
    {
      "inputs": [
        {
          "internalType": "uint256",
          "name": "tokenId",
          "type": "uint256"
        },
        {
          "internalType": "uint256",
          "name": "duration",
          "type": "uint256"
        }
      ],
      "name": "renew",
      "outputs": [
        {
          "internalType": "uint256",
          "name": "expires",
          "type": "uint256"
        }
      ],
      "stateMutability": "nonpayable",
      "type": "function"
    },
    {
      "inputs": [],
      "name": "renounceOwnership",
      "outputs": [],
      "stateMutability": "nonpayable",
      "type": "function"
    },
    {
      "inputs": [
        {
          "internalType": "address",
          "name": "from",
          "type": "address"
        },
        {
          "internalType": "address",
          "name": "to",
          "type": "address"
        },
        {
          "internalType": "uint256[]",
          "name": "ids",
          "type": "uint256[]"
        },
        {
          "internalType": "uint256[]",
          "name": "amounts",
          "type": "uint256[]"
        },
        {
          "internalType": "bytes",
          "name": "data",
          "type": "bytes"
        }
      ],
      "name": "safeBatchTransferFrom",
      "outputs": [],
      "stateMutability": "nonpayable",
      "type": "function"
    },
    {
      "inputs": [
        {
          "internalType": "address",
          "name": "from",
          "type": "address"
        },
        {
          "internalType": "address",
          "name": "to",
          "type": "address"
        },
        {
          "internalType": "uint256",
          "name": "id",
          "type": "uint256"
        },
        {
          "internalType": "uint256",
          "name": "amount",
          "type": "uint256"
        },
        {
          "internalType": "bytes",
          "name": "data",
          "type": "bytes"
        }
      ],
      "name": "safeTransferFrom",
      "outputs": [],
      "stateMutability": "nonpayable",
      "type": "function"
    },
    {
      "inputs": [
        {
          "internalType": "address",
          "name": "operator",
          "type": "address"
        },
        {
          "internalType": "bool",
          "name": "approved",
          "type": "bool"
        }
      ],
      "name": "setApprovalForAll",
      "outputs": [],
      "stateMutability": "nonpayable",
      "type": "function"
    },
    {
      "inputs": [
        {
          "internalType": "bytes32",
          "name": "parentNode",
          "type": "bytes32"
        },
        {
          "internalType": "bytes32",
          "name": "labelhash",
          "type": "bytes32"
        },
        {
          "internalType": "uint32",
          "name": "fuses",
          "type": "uint32"
        },
        {
          "internalType": "uint64",
          "name": "expiry",
          "type": "uint64"
        }
      ],
      "name": "setChildFuses",
      "outputs": [],
      "stateMutability": "nonpayable",
      "type": "function"
    },
    {
      "inputs": [
        {
          "internalType": "address",
          "name": "controller",
          "type": "address"
        },
        {
          "internalType": "bool",
          "name": "active",
          "type": "bool"
        }
      ],
      "name": "setController",
      "outputs": [],
      "stateMutability": "nonpayable",
      "type": "function"
    },
    {
      "inputs": [
        {
          "internalType": "bytes32",
          "name": "node",
          "type": "bytes32"
        },
        {
          "internalType": "uint16",
          "name": "ownerControlledFuses",
          "type": "uint16"
        }
      ],
      "name": "setFuses",
      "outputs": [
        {
          "internalType": "uint32",
          "name": "",
          "type": "uint32"
        }
      ],
      "stateMutability": "nonpayable",
      "type": "function"
    },
    {
      "inputs": [
        {
          "internalType": "contract IMetadataService",
          "name": "_metadataService",
          "type": "address"
        }
      ],
      "name": "setMetadataService",
      "outputs": [],
      "stateMutability": "nonpayable",
      "type": "function"
    },
    {
      "inputs": [
        {
          "internalType": "bytes32",
          "name": "node",
          "type": "bytes32"
        },
        {
          "internalType": "address",
          "name": "owner",
          "type": "address"
        },
        {
          "internalType": "address",
          "name": "resolver",
          "type": "address"
        },
        {
          "internalType": "uint64",
          "name": "ttl",
          "type": "uint64"
        }
      ],
      "name": "setRecord",
      "outputs": [],
      "stateMutability": "nonpayable",
      "type": "function"
    },
    {
      "inputs": [
        {
          "internalType": "bytes32",
          "name": "node",
          "type": "bytes32"
        },
        {
          "internalType": "address",
          "name": "resolver",
          "type": "address"
        }
      ],
      "name": "setResolver",
      "outputs": [],
      "stateMutability": "nonpayable",
      "type": "function"
    },
    {
      "inputs": [
        {
          "internalType": "bytes32",
          "name": "parentNode",
          "type": "bytes32"
        },
        {
          "internalType": "string",
          "name": "label",
          "type": "string"
        },
        {
          "internalType": "address",
          "name": "owner",
          "type": "address"
        },
        {
          "internalType": "uint32",
          "name": "fuses",
          "type": "uint32"
        },
        {
          "internalType": "uint64",
          "name": "expiry",
          "type": "uint64"
        }
      ],
      "name": "setSubnodeOwner",
      "outputs": [
        {
          "internalType": "bytes32",
          "name": "node",
          "type": "bytes32"
        }
      ],
      "stateMutability": "nonpayable",
      "type": "function"
    },
    {
      "inputs": [
        {
          "internalType": "bytes32",
          "name": "parentNode",
          "type": "bytes32"
        },
        {
          "internalType": "string",
          "name": "label",
          "type": "string"
        },
        {
          "internalType": "address",
          "name": "owner",
          "type": "address"
        },
        {
          "internalType": "address",
          "name": "resolver",
          "type": "address"
        },
        {
          "internalType": "uint64",
          "name": "ttl",
          "type": "uint64"
        },
        {
          "internalType": "uint32",
          "name": "fuses",
          "type": "uint32"
        },
        {
          "internalType": "uint64",
          "name": "expiry",
          "type": "uint64"
        }
      ],
      "name": "setSubnodeRecord",
      "outputs": [
        {
          "internalType": "bytes32",
          "name": "node",
          "type": "bytes32"
        }
      ],
      "stateMutability": "nonpayable",
      "type": "function"
    },
    {
      "inputs": [
        {
          "internalType": "bytes32",
          "name": "node",
          "type": "bytes32"
        },
        {
          "internalType": "uint64",
          "name": "ttl",
          "type": "uint64"
        }
      ],
      "name": "setTTL",
      "outputs": [],
      "stateMutability": "nonpayable",
      "type": "function"
    },
    {
      "inputs": [
        {
          "internalType": "contract INameWrapperUpgrade",
          "name": "_upgradeAddress",
          "type": "address"
        }
      ],
      "name": "setUpgradeContract",
      "outputs": [],
      "stateMutability": "nonpayable",
      "type": "function"
    },
    {
      "inputs": [
        {
          "internalType": "bytes4",
          "name": "interfaceId",
          "type": "bytes4"
        }
      ],
      "name": "supportsInterface",
      "outputs": [
        {
          "internalType": "bool",
          "name": "",
          "type": "bool"
        }
      ],
      "stateMutability": "view",
      "type": "function"
    },
    {
      "inputs": [
        {
          "internalType": "address",
          "name": "newOwner",
          "type": "address"
        }
      ],
      "name": "transferOwnership",
      "outputs": [],
      "stateMutability": "nonpayable",
      "type": "function"
    },
    {
      "inputs": [
        {
          "internalType": "bytes32",
          "name": "parentNode",
          "type": "bytes32"
        },
        {
          "internalType": "bytes32",
          "name": "labelhash",
          "type": "bytes32"
        },
        {
          "internalType": "address",
          "name": "controller",
          "type": "address"
        }
      ],
      "name": "unwrap",
      "outputs": [],
      "stateMutability": "nonpayable",
      "type": "function"
    },
    {
      "inputs": [
        {
          "internalType": "bytes32",
          "name": "labelhash",
          "type": "bytes32"
        },
        {
          "internalType": "address",
          "name": "registrant",
          "type": "address"
        },
        {
          "internalType": "address",
          "name": "controller",
          "type": "address"
        }
      ],
      "name": "unwrapETH2LD",
      "outputs": [],
      "stateMutability": "nonpayable",
      "type": "function"
    },
    {
      "inputs": [
        {
          "internalType": "bytes",
          "name": "name",
          "type": "bytes"
        },
        {
          "internalType": "bytes",
          "name": "extraData",
          "type": "bytes"
        }
      ],
      "name": "upgrade",
      "outputs": [],
      "stateMutability": "nonpayable",
      "type": "function"
    },
    {
      "inputs": [],
      "name": "upgradeContract",
      "outputs": [
        {
          "internalType": "contract INameWrapperUpgrade",
          "name": "",
          "type": "address"
        }
      ],
      "stateMutability": "view",
      "type": "function"
    },
    {
      "inputs": [
        {
          "internalType": "uint256",
          "name": "tokenId",
          "type": "uint256"
        }
      ],
      "name": "uri",
      "outputs": [
        {
          "internalType": "string",
          "name": "",
          "type": "string"
        }
      ],
      "stateMutability": "view",
      "type": "function"
    },
    {
      "inputs": [
        {
          "internalType": "bytes",
          "name": "name",
          "type": "bytes"
        },
        {
          "internalType": "address",
          "name": "wrappedOwner",
          "type": "address"
        },
        {
          "internalType": "address",
          "name": "resolver",
          "type": "address"
        }
      ],
      "name": "wrap",
      "outputs": [],
      "stateMutability": "nonpayable",
      "type": "function"
    },
    {
      "inputs": [
        {
          "internalType": "string",
          "name": "label",
          "type": "string"
        },
        {
          "internalType": "address",
          "name": "wrappedOwner",
          "type": "address"
        },
        {
          "internalType": "uint16",
          "name": "ownerControlledFuses",
          "type": "uint16"
        },
        {
          "internalType": "address",
          "name": "resolver",
          "type": "address"
        }
      ],
      "name": "wrapETH2LD",
      "outputs": [
        {
          "internalType": "uint64",
          "name": "expiry",
          "type": "uint64"
        }
      ],
      "stateMutability": "nonpayable",
      "type": "function"
    }
  ],
  "bytecode": "0x60c0806040523461039f57606081615475803803809161001f8285610417565b83398101031261039f5780516001600160a01b038116919082810361039f576020820151916001600160a01b038316830361039f57604001516001600160a01b038116939084900361039f5733156104015760008054336001600160a01b031982168117835560405193602093859360249385939290916001600160a01b0316907f8be0079c531659141344cd1fd0a4f28419497f9722a3daafe3b4186f6b6457e09080a36302571be360e01b82527f91d1777781884d03a6757a803996e38de2a42967fb37eeaca72729271025a9e260048301525afa9081156103ab576000916103b7575b50604051630f41a04d60e11b815233600482015290602090829060249082906000906001600160a01b03165af180156103ab5761037b575b5060805260a052600580546001600160a01b031916919091179055600163fffeffff60a01b03197f406b722cc7c159048e7150bf7d745b1e7a90a6c9d3e17adc446b08912c82ee4e819055600080527fa6eef7e35abe7026729641147f7915573c7e97b47efa546f5f6e3230263bcb495560066020527f54cdd369e4e8a8515e52ca72ec816c2101831ad1f18bf44102ed171459c9b4f880546101df90610450565b601f811161034e575b50600290557f792f878ece97d22e612f52be21b22b7cd412ee91085e091bf8237322fc3fe4e660005260066020527fbd937c1af16d5fd46a1d0d07ac1e3d9cd4792415d3d1220cf318fc3018bf453a805461024290610450565b601f8111610321575b50600a626cae8d60e31b019055604051614fea908161048b82396080518181816108ca01528181610c34015281816111ac0152818161123401528181611ec001528181611fc5015281816121a5015281816123a10152818161277701528181612d9501528181612e430152818161350b01528181613aa301528181613c4301528181613e30015281816143ea015261449f015260a0518181816109e601528181610f0301528181611767015281816118aa01528181611cd801528181611e4501528181611f4a0152818161341e01526136810152f35b81600052601f6020600020910160051c8101905b818110610342575061024b565b60008155600101610335565b81600052601f6020600020910160051c8101905b81811061036f57506101e8565b60008155600101610362565b602090813d83116103a4575b6103918183610417565b8101031261039f573861013d565b600080fd5b503d610387565b6040513d6000823e3d90fd5b6020813d6020116103f9575b816103d060209383610417565b810103126103f55751906001600160a01b03821682036103f257506020610105565b80fd5b5080fd5b3d91506103c3565b631e4fbdf760e01b600052600060045260246000fd5b601f909101601f19168101906001600160401b0382119082101761043a57604052565b634e487b7160e01b600052604160045260246000fd5b90600182811c92168015610480575b602083101461046a57565b634e487b7160e01b600052602260045260246000fd5b91607f169161045f56fe6080604052600436101561001257600080fd5b60003560e01c8062fdd58e146103265780630178fe3f1461032157806301ffc9a71461031c57806306fdde0314610317578063081812fc14610312578063095ea7b31461030d5780630e4cd725146103085780630e89341c1461030357806314ab9038146102fe578063150b7a02146102f95780631534e177146102f457806316279055146102ef5780631896f70a146102ea5780631f4e1504146102e557806320c38e2b146102e057806324c1af44146102db5780632b20e397146102d65780632eb2c2d6146102d157806333c69ea9146102cc5780633f15457f146102c7578063402906fc146102c257806341415eab146102bd5780634e1273f4146102b857806353095467146102b35780635d3590d5146102ae5780636352211e146102a95780636e5d6ad2146102a4578063715018a61461029f5780638b4dfa751461029a5780638cf8b41e146102955780638da5cb5b14610290578063a22cb4651461028b578063a401498214610286578063adf4960a14610281578063b6bcad261461027c578063c475abff14610277578063c658e08614610272578063c93ab3fd1461026d578063cf40882314610268578063d8c9921a14610263578063d9a50c121461025e578063da8c229e14610259578063e0dba60f14610254578063e985e9c51461024f578063eb8ae5301461024a578063ed70554d14610245578063f242432a14610240578063f2fde38b1461023b5763fd0cd0d91461023657600080fd5b612ad8565b612a4b565b612948565b61291c565b6126ae565b612646565b6125da565b612598565b612577565b6124d2565b612346565b61223a565b6120a9565b61206e565b611dac565b611d66565b611c1e565b611b45565b611aed565b611822565b6116fe565b6116a5565b611574565b611540565b6114a3565b61147a565b6113b9565b61134a565b611296565b61121e565b611038565b610fa6565b610eed565b610e62565b610daa565b610ca3565b610bea565b610bc3565b610b7c565b61099b565b610884565b61072e565b6106fa565b6105d2565b6105a2565b610551565b6103dd565b610374565b610341565b6001600160a01b0381160361033c57565b600080fd5b3461033c57604036600319011261033c57602061036c6004356103638161032b565b60243590612af6565b604051908152f35b3461033c57602036600319011261033c57606063ffffffff6001600160401b036103ac6103a2600435613843565b929190839161386f565b6040949194519460018060a01b03168552166020840152166040820152f35b6001600160e01b031981160361033c57565b3461033c57602036600319011261033c576004356103fa816103cb565b63ffffffff60e01b16631b05885b60e31b811490811561046d575b811561042a575b506040519015158152602090f35b636cdb3d1360e11b81149150811561045c575b811561044b575b503861041c565b6301ffc9a760e01b14905038610444565b6303a24d0760e21b8114915061043d565b630a85bd0160e11b81149150610415565b600091031261033c57565b634e487b7160e01b600052604160045260246000fd5b90601f801991011681019081106001600160401b038211176104c057604052565b610489565b6001600160401b0381116104c057601f01601f191660200190565b604051906104ef60208361049f565b60008252565b60005b8381106105085750506000910152565b81810151838201526020016104f8565b90602091610531815180928185528580860191016104f5565b601f01601f1916010190565b90602061054e928181520190610518565b90565b3461033c57600036600319011261033c5761059e6040805190610574818361049f565b600b82526a2730b6b2abb930b83832b960a91b602083015251918291602083526020830190610518565b0390f35b3461033c57602036600319011261033c5760206105c0600435612b9e565b6040516001600160a01b039091168152f35b3461033c57604036600319011261033c576004356105ef8161032b565b60243560408061060761060184613843565b9161386f565b905016146106e65761061b61060182613843565b50916001600160a01b0380841690821681146106975761064e93610649913314908115610650575b506138a1565b614b8d565b005b6001600160a01b03166000908152600260205260409020610691915061068a9033905b9060018060a01b0316600052602052604060002090565b5460ff1690565b38610643565b60405162461bcd60e51b815260206004820152602160248201527f4552433732313a20617070726f76616c20746f2063757272656e74206f776e656044820152603960f91b6064820152608490fd5b63a2a7201360e01b60005260045260246000fd5b3461033c57604036600319011261033c57602061072460243560043561071f8261032b565b612bda565b6040519015158152f35b3461033c57602036600319011261033c576005546040516303a24d0760e21b8152600480359082015290600090829060249082906001600160a01b03165afa9081156108115760009161078a575b6040518061059e848261053d565b3d8083833e610799818361049f565b810190602081830312610809578051906001600160401b03821161080d570181601f82011215610809578051926107cf846104c5565b926107dd604051948561049f565b84845260208584010111610806575061059e9261080091602080850191016104f5565b9061077c565b80fd5b8280fd5b8380fd5b612c7c565b602435906001600160401b038216820361033c57565b608435906001600160401b038216820361033c57565b60c435906001600160401b038216820361033c57565b606435906001600160401b038216820361033c57565b604435906001600160401b038216820361033c57565b3461033c5760006040366003190112610806576004356108a2610816565b6108ac3383613212565b156109565760106108bf61060184613843565b9050166109425782907f00000000000000000000000000000000000000000000000000000000000000006001600160a01b0316803b15610809576001600160401b0393836044926040519687958694630295720760e31b865260048601521660248401525af180156108115782906109345780f35b61093d9161049f565b388180f35b63a2a7201360e01b83526004829052602483fd5b63168ab55d60e31b8352600482905233602452604483fd5b9181601f8401121561033c578235916001600160401b03831161033c576020838186019501011161033c57565b3461033c57608036600319011261033c576109b760043561032b565b6109c260243561032b565b6044356064356001600160401b03811161033c576109e490369060040161096e565b7f00000000000000000000000000000000000000000000000000000000000000006001600160a01b03169133839003610b6b57610a2391810190612c88565b93839193516020830120868103610b4e5750803b1561033c57604051630a3b53db60e21b8152600481018790523060248201529560008760448183865af191821561081157610a9597602093610b33575b506040518080998194636b727d4360e11b8352600483019190602083019252565b03915afa93841561081157610adf95600095610af1575b506001600160a01b03169361ffff90610acd906001600160401b0316612d03565b9316916001600160a01b031690613a24565b604051630a85bd0160e11b8152602090f35b61ffff9195506001600160401b03610b23610acd9260203d602011610b2c575b610b1b818361049f565b810190612cde565b96925050610aac565b503d610b11565b80610b426000610b489361049f565b8061047e565b38610a74565b6331970f3360e21b600052600452602486905260446000fd5b6000fd5b63032634a760e31b60005260046000fd5b3461033c57602036600319011261033c57600435610b998161032b565b610ba1613b21565b600580546001600160a01b0319166001600160a01b0392909216919091179055005b3461033c57602036600319011261033c576020610724600435610be58161032b565b612d28565b3461033c576000604036600319011261080657600435602435610c0c8161032b565b610c163383613212565b15610956576008610c2961060184613843565b9050166109425782907f00000000000000000000000000000000000000000000000000000000000000006001600160a01b0316803b1561080957604051630c4b7b8560e11b815260048101949094526001600160a01b039190911660248401528290604490829084905af180156108115782906109345780f35b3461033c57600036600319011261033c576007546040516001600160a01b039091168152602090f35b90600182811c92168015610cfc575b6020831014610ce657565b634e487b7160e01b600052602260045260246000fd5b91607f1691610cdb565b9060405191826000825492610d1a84610ccc565b8084529360018116908115610d885750600114610d41575b50610d3f9250038361049f565b565b90506000929192526020600020906000915b818310610d6c575050906020610d3f9282010138610d32565b6020919350806001915483858901015201910190918492610d53565b905060209250610d3f94915060ff191682840152151560051b82010138610d32565b3461033c57602036600319011261033c57600435600052600660205261059e610dd66040600020610d06565b604051918291602083526020830190610518565b929192610df6826104c5565b91610e04604051938461049f565b82948184528183011161033c578281602093846000960137010152565b9080601f8301121561033c5781602061054e93359101610dea565b6044359063ffffffff8216820361033c57565b6064359063ffffffff8216820361033c57565b3461033c5760e036600319011261033c576004356024356001600160401b03811161033c57610e95903690600401610e21565b60443591610ea28361032b565b606435610eae8161032b565b610eb661082c565b60a4359163ffffffff8316830361033c5761059e95610edd95610ed7610842565b95612d32565b6040519081529081906020820190565b3461033c57600036600319011261033c576040517f00000000000000000000000000000000000000000000000000000000000000006001600160a01b03168152602090f35b6001600160401b0381116104c05760051b60200190565b9080601f8301121561033c578135610f6081610f32565b92610f6e604051948561049f565b81845260208085019260051b82010192831161033c57602001905b828210610f965750505090565b8135815260209182019101610f89565b3461033c5760a036600319011261033c57600435610fc38161032b565b60243590610fd08261032b565b6044356001600160401b03811161033c57610fef903690600401610f49565b6064356001600160401b03811161033c5761100e903690600401610f49565b90608435936001600160401b03851161033c5761103261064e953690600401610e21565b936130c4565b3461033c57608036600319011261033c57600435602435611057610e3c565b9161106a611063610858565b9282613b7d565b6110748482613ca3565b61107d81612b84565b90949093906001600160a01b038316158015611187575b611176576110a182612b84565b939091508061113d57506110bc6110b83387613212565b1590565b611123576110d792916110d287925b8a886142cf565b6142f4565b9362010000811615158061110b575b6110f55761064e951791614335565b63a2a7201360e01b600052600483905260246000fd5b5063ffffffff811663ffffffff8783171614156110e6565b63168ab55d60e31b60005260048590523360245260446000fd5b61114a6110b83383613212565b61115e57506110d792916110d287926110cb565b63168ab55d60e31b6000526004523360245260446000fd5b635374b59960e01b60005260046000fd5b506040516302571be360e01b8152600481018590526020816024816001600160a01b037f0000000000000000000000000000000000000000000000000000000000000000165afa908115610811576000916111ef575b506001600160a01b0316301415611094565b611211915060203d602011611217575b611209818361049f565b8101906131fd565b386111dd565b503d6111ff565b3461033c57600036600319011261033c576040517f00000000000000000000000000000000000000000000000000000000000000006001600160a01b03168152602090f35b6024359061ffff8216820361033c57565b6044359061ffff8216820361033c57565b6084359061ffff8216820361033c57565b3461033c57604036600319011261033c576004356112b2611263565b6112bc3383613212565b156113315760026112cf61060184613843565b90501661131c5761130561ffff916112f9846112ed61059e96613843565b8095929181959261386f565b96879192161791614335565b60405163ffffffff90911681529081906020820190565b5063a2a7201360e01b60005260045260246000fd5b5063168ab55d60e31b6000526004523360245260446000fd5b3461033c57604036600319011261033c57602061072460243560043561136f8261032b565b613212565b906020808351928381520192019060005b8181106113925750505090565b8251845260209384019390920191600101611385565b90602061054e928181520190611374565b3461033c57604036600319011261033c576004356001600160401b03811161033c573660238201121561033c578060040135906113f582610f32565b91611403604051938461049f565b8083526024602084019160051b8301019136831161033c57602401905b82821061146057836024356001600160401b03811161033c5761059e9161144e611454923690600401610f49565b906132a5565b604051918291826113a8565b60208091833561146f8161032b565b815201910190611420565b3461033c57600036600319011261033c576005546040516001600160a01b039091168152602090f35b3461033c57606036600319011261033c576004356114c08161032b565b60206024356114ce8161032b565b60448035916114db613b21565b60405163a9059cbb60e01b81526001600160a01b0391821660048201526024810193909352919384928391600091165af180156108115761151857005b61064e9060203d602011611539575b611531818361049f565b810190613368565b503d611527565b3461033c57602036600319011261033c576020611561610601600435613843565b506040516001600160a01b039091168152f35b3461033c57606036600319011261033c5760043560243561159d61159661086e565b9183613b7d565b916115aa6110b884613def565b611176576115bb6110b83383612bda565b918280611692575b611678576115d084612b84565b919390948061166b575b611655576116069261059e9694926115f46115fd93612b84565b939150506142f4565b938491846143c1565b6040516001600160401b03831681527ff675815a0817338f93a7da433f6bd5f5542f1029b11b455191ac96c7f6a9b13290602090a26040516001600160401b0390911681529081906020820190565b63a2a7201360e01b600052600486905260246000fd5b50620400008516156115da565b63168ab55d60e31b60005260048490523360245260446000fd5b506116a06110b83386613212565b6115c3565b3461033c57600036600319011261033c576116be613b21565b600080546001600160a01b0319811682556001600160a01b03167f8be0079c531659141344cd1fd0a4f28419497f9722a3daafe3b4186f6b6457e08280a3005b3461033c57606036600319011261033c5760043560243561171e8161032b565b60443561172a8161032b565b61173383613b4a565b61173d3382613212565b1561180a57506001600160a01b03821630146117ec576117659061176084613b4a565b614486565b7f00000000000000000000000000000000000000000000000000000000000000006001600160a01b031691823b1561033c57604051632142170760e11b81523060048201526001600160a01b0390921660248301526044820152906000908290818381606481015b03925af18015610811576117dd57005b80610b42600061064e9361049f565b632ca49b0d60e11b6000526001600160a01b03821660045260246000fd5b63168ab55d60e31b6000526004523360245260446000fd5b3461033c57608036600319011261033c576004356001600160401b03811161033c5761185290369060040161096e565b90602435916118608361032b565b611868611274565b90606435906118768261032b565b611881368286610dea565b80516020918201206040516331a9108f60e11b8152600481018290529094916001600160a01b037f000000000000000000000000000000000000000000000000000000000000000016919081602481855afa90811561081157600091611ace575b506001600160a01b03811633141580611a6d575b611a4a57813b1561033c576040516323b872dd60e01b81526001600160a01b039190911660048201523060248201526044810186905260008160648183865af1801561081157611a35575b50803b1561033c57604051630a3b53db60e21b8152600481018690523060248201529460008660448183865af1918215610811576119a296602093611a20575b506040518080988194636b727d4360e11b8352600483019190602083019252565b03915afa9586156108115761ffff6119df6119d56001600160401b0361059e9a6119e799600091611a01575b5016612d03565b9788953691610dea565b921691613a24565b6040516001600160401b0390911681529081906020820190565b611a1a915060203d602011610b2c57610b1b818361049f565b386119ce565b80610b426000611a2f9361049f565b38611981565b80610b426000611a449361049f565b38611941565b610b67611a5687613b4a565b63168ab55d60e31b60005260045233602452604490565b5060405163e985e9c560e01b81526001600160a01b0382166004820152336024820152602081604481865afa90811561081157600091611aaf575b50156118f6565b611ac8915060203d60201161153957611531818361049f565b38611aa8565b611ae7915060203d60201161121757611209818361049f565b386118e2565b3461033c57600036600319011261033c576000546040516001600160a01b039091168152602090f35b8015150361033c57565b604090600319011261033c57600435611b388161032b565b9060243561054e81611b16565b3461033c57611b5336611b20565b6001600160a01b03821691338314611bc757336000908152600260205260409020611b95918391611b849190610673565b9060ff801983541691151516179055565b604051901515815233907f17307eab39ab6107e8899845ad3d59bd9653f200f220920489ca2b5937696c3190602090a3005b60405162461bcd60e51b815260206004820152602960248201527f455243313135353a2073657474696e6720617070726f76616c20737461747573604482015268103337b91039b2b63360b91b6064820152608490fd5b3461033c5760a036600319011261033c576004356001600160401b03811161033c57611c51611cd291369060040161096e565b60243590611c5e8261032b565b60643590604435611c6e8361032b565b6020611c78611285565b913360005260048252611c9260ff6040600020541661337d565b611c9d368589610dea565b805190830120604051633f2891eb60e21b81526004810191909152306024820152604481019190915296879081906064820190565b038160007f00000000000000000000000000000000000000000000000000000000000000006001600160a01b03165af19384156108115761059e96600095611d3b575b5061ffff6119df8697611d336001600160401b03610edd9916612d03565b953691610dea565b610edd95506119df611d5e61ffff9260203d602011610b2c57610b1b818361049f565b965050611d15565b3461033c57604036600319011261033c5760243563ffffffff811660043581830361033c57602092611d9f61060163ffffffff93613843565b9050161614604051908152f35b3461033c57602036600319011261033c57600435611dc98161032b565b611dd1613b21565b600754611dee906001600160a01b03165b6001600160a01b031690565b6001600160a01b038116611f48575b50600780546001600160a01b0319166001600160a01b039092169190911790555b600754611e33906001600160a01b0316611de2565b6001600160a01b038116611e4357005b7f00000000000000000000000000000000000000000000000000000000000000006001600160a01b0316803b1561033c5760405163a22cb46560e01b81526001600160a01b03929092166004830152600160248301526000908290604490829084905af1801561081157611f33575b506007546001600160a01b037f0000000000000000000000000000000000000000000000000000000000000000811691611eec9116611de2565b90803b1561033c5760405163a22cb46560e01b81526001600160a01b03929092166004830152600160248301526000908290604490829084905af18015610811576117dd57005b80610b426000611f429361049f565b38611eb2565b7f00000000000000000000000000000000000000000000000000000000000000006001600160a01b0316803b1561033c5760405163a22cb46560e01b81526001600160a01b03929092166004830152600060248301819052908290604490829084905af1801561081157612059575b506007546001600160a01b037f000000000000000000000000000000000000000000000000000000000000000081169291611ff29116611de2565b91803b1561033c5760405163a22cb46560e01b81526001600160a01b03939093166004840152600060248401819052908390604490829084905af191821561081157611e1e92612044575b5090611dfd565b80610b4260006120539361049f565b3861203d565b80610b4260006120689361049f565b38611fb7565b3461033c57604036600319011261033c57602061036c6004356024359033600052600484526120a460ff6040600020541661337d565b6133f0565b3461033c5760a036600319011261033c576004356024356001600160401b03811161033c576120dc90369060040161096e565b604435906120e98261032b565b6120f1610e4f565b6120f961082c565b926121043387613212565b1561222157612114368487610dea565b60208151910120956121268782613b7d565b956121318783613ba7565b61213b8488613ca3565b61215c61215361214c368885610dea565b8985613cba565b96858985613dbb565b946121696110b889613def565b156121ff5750506040516306ab592360e01b81526004810191909152602481019690965230604487015260208660648160006001600160a01b037f0000000000000000000000000000000000000000000000000000000000000000165af19384156108115761059e96610edd956121e2575b50856146d4565b6121fa9060203d602011610b2c57610b1b818361049f565b6121db565b61059e985061221c96508791612216913691610dea565b91613e97565b610edd565b8563168ab55d60e31b6000526004523360245260446000fd5b3461033c57604036600319011261033c576004356001600160401b03811161033c5761226a90369060040161096e565b906024356001600160401b03811161033c5761228a90369060040161096e565b6122a2600061229d949394368786610dea565b614819565b6007549094906001600160a01b03906122bc908216611de2565b1615612335576122cf6110b83387613212565b611123576122dc85612b84565b6122f26122ec8994979399612b9e565b936148b6565b600754612307906001600160a01b0316611de2565b94853b1561033c5760009788946117cd936040519b8c9a8b998a986348cc613b60e11b8a5260048a016135d7565b63093075b560e21b60005260046000fd5b3461033c57608036600319011261033c576004356024356123668161032b565b6044356123728161032b565b61237a610858565b906123853385613212565b156124b957601c61239861060186613843565b9050166124a4577f00000000000000000000000000000000000000000000000000000000000000006001600160a01b031691823b1561033c5760405163cf40882360e01b8152600481018690523060248201526001600160a01b039290921660448301526001600160401b03166064820152906000908290608490829084905af180156108115761248f575b506001600160a01b03811661247157620200008061244184612b84565b5090501614612454575061064e906143d2565b632ca49b0d60e11b6000526001600160a01b031660045260246000fd5b8161247e61064e93612b84565b5050916124896104e0565b9261494b565b80610b42600061249e9361049f565b38612424565b8363a2a7201360e01b60005260045260246000fd5b8363168ab55d60e31b6000526004523360245260446000fd5b3461033c57606036600319011261033c576024356044356004356124f58261032b565b6124ff8382613b7d565b6125093382613212565b1561180a5750600080516020614f958339815191528114612566576001600160a01b0382168015801561255d575b612549575061064e9261176091613b7d565b632ca49b0d60e11b60005260045260246000fd5b50308114612537565b63615a470360e01b60005260046000fd5b3461033c57604036600319011261033c576020610724602435600435613634565b3461033c57602036600319011261033c576004356125b58161032b565b60018060a01b03166000526004602052602060ff604060002054166040519015158152f35b3461033c5760207f4c97694570a07277810af7e5669ffd5f6a2d6b74b6e9a274b8b870fd5114cf8761260b36611b20565b9290612615613b21565b6001600160a01b031660008181526004835260409020805460ff191660ff86151516179055926040519015158152a2005b3461033c57604036600319011261033c57602060ff6126a260043561266a8161032b565b602435906126778261032b565b60018060a01b03166000526002845260406000209060018060a01b0316600052602052604060002090565b54166040519015158152f35b3461033c57606036600319011261033c576004356001600160401b03811161033c576126de90369060040161096e565b61272e602435916126ee8361032b565b604435936126fb8561032b565b600080516020614f9583398151915261273561272061271b368686610dea565b614a90565b61229d969196368787610dea565b9485613b7d565b93612754848461274f886000526006602052604060002090565b61373d565b14612566576040516302571be360e01b8152600481018490526001600160a01b037f00000000000000000000000000000000000000000000000000000000000000001695906020816024818a5afa908115610811576000916128fd575b506001600160a01b0381163314159081612898575b50611678576001600160a01b038116612842575b50843b1561033c57604051635b0fc9c360e01b815260048101849052306024820152946000908690604490829084905af19182156108115761064e956128279361282d575b503691610dea565b90614592565b80610b42600061283c9361049f565b3861281f565b853b1561033c57604051630c4b7b8560e11b8152600481018590526001600160a01b03919091166024820152600081604481838a5af1801561081157156127da5780610b4260006128929361049f565b386127da565b60405163e985e9c560e01b81526001600160a01b0391909116600482015233602482015290506020816044818a5afa908115610811576000916128de575b5015386127c6565b6128f7915060203d60201161153957611531818361049f565b386128d6565b612916915060203d60201161121757611209818361049f565b386127b1565b3461033c57602036600319011261033c5760043560005260016020526020604060002054604051908152f35b3461033c5760a036600319011261033c576004356129658161032b565b6024356129718161032b565b6064356044356084356001600160401b03811161033c57612996903690600401610e21565b926129ab6001600160a01b0382161515612f4c565b6001600160a01b038516338114908115612a26575b50156129cf5761064e946149dc565b60405162461bcd60e51b815260206004820152602960248201527f455243313135353a2063616c6c6572206973206e6f74206f776e6572206e6f7260448201526808185c1c1c9bdd995960ba1b6064820152608490fd5b6000908152600260209081526040808320338452909152902060ff91505416386129c0565b3461033c57602036600319011261033c57600435612a688161032b565b612a70613b21565b6001600160a01b03168015612ac257600080546001600160a01b03198116831782556001600160a01b0316907f8be0079c531659141344cd1fd0a4f28419497f9722a3daafe3b4186f6b6457e09080a3005b631e4fbdf760e01b600052600060045260246000fd5b3461033c57602036600319011261033c57602061072460043561380b565b6001600160a01b0316908115612b2b57610601612b1291613843565b506001600160a01b031614612b2657600090565b600190565b60405162461bcd60e51b815260206004820152602b60248201527f455243313135353a2062616c616e636520717565727920666f7220746865207a60448201526a65726f206164647265737360a81b6064820152608490fd5b612b90612b9991613843565b9081939261386f565b919092565b612baa61060182613843565b506001600160a01b031615612bd4576000908152600360205260409020546001600160a01b031690565b50600090565b612bf190612be781613843565b939190849161386f565b6001600160a01b03858116921682811495919391908615612c4c575b50508415612c2c575b505082612c2257505090565b6110b89250613934565b919350906001600160a01b0390612c4290612b9e565b1614913880612c16565b60009081526002602090815260408083206001600160a01b03949094168352929052205460ff1694503880612c0d565b6040513d6000823e3d90fd5b919060808382031261033c578235906001600160401b03821161033c57612cb0918401610e21565b916020810135612cbf8161032b565b91604082013561ffff8116810361033c57916060013561054e8161032b565b9081602091031261033c575190565b634e487b7160e01b600052601160045260246000fd5b6001600160401b036276a700911601906001600160401b038211612d2357565b612ced565b3b612b2657600090565b949294612d3f3382613212565b1561180a5781516020830120612d81612d588284613b7d565b98612d638a85613ba7565b612d6d878b613ca3565b612d78858b86613cba565b50868a85613dbb565b95612d8e6110b88a613def565b15612e41577f00000000000000000000000000000000000000000000000000000000000000006001600160a01b0316803b1561033c576040516305ef2c7f60e41b81526004810185905260248101939093523060448401526001600160a01b039890981660648301526001600160401b0316608482015295600090879060a490829084905af19081156108115761054e968892612e2c575b50613f3a565b80610b426000612e3b9361049f565b38612e26565b7f00000000000000000000000000000000000000000000000000000000000000006001600160a01b0316803b1561033c576040516305ef2c7f60e41b81526004810185905260248101939093523060448401526001600160a01b039890981660648301526001600160401b0316608482015295600090879060a490829084905af19081156108115761054e968892612eda575b50613e97565b80610b426000612ee99361049f565b38612ed4565b15612ef657565b60405162461bcd60e51b815260206004820152602860248201527f455243313135353a2069647320616e6420616d6f756e7473206c656e677468206044820152670dad2e6dac2e8c6d60c31b6064820152608490fd5b15612f5357565b60405162461bcd60e51b815260206004820152602560248201527f455243313135353a207472616e7366657220746f20746865207a65726f206164604482015264647265737360d81b6064820152608490fd5b15612fad57565b60405162461bcd60e51b815260206004820152603260248201527f455243313135353a207472616e736665722063616c6c6572206973206e6f74206044820152711bdddb995c881b9bdc88185c1c1c9bdd995960721b6064820152608490fd5b634e487b7160e01b600052603260045260246000fd5b80518210156130375760209160051b010190565b61300d565b1561304357565b60405162461bcd60e51b815260206004820152602a60248201527f455243313135353a20696e73756666696369656e742062616c616e636520666f60448201526939103a3930b739b332b960b11b6064820152608490fd5b0390fd5b90916130b661054e93604084526040840190611374565b916020818403910152611374565b93949190916130d68251855114612eef565b6130ea6001600160a01b0384161515612f4c565b6001600160a01b0385169533871480156131cf575b61310890612fa6565b60005b835181101561317c57806131648961312560019488613023565b5188613131858c613023565b519161315f8761314083612b84565b9791929096613150898988613f60565b14918261316a575b505061303c565b613ff3565b0161310b565b909150898060a01b0316148f38613158565b506040519196610d3f96919594926001600160a01b038416919033907f4a39dc06d4c0dbc64b70af90fd698a233a518aa5d07e595d983b8c0526c8f7fb90806131c68a8a8361309f565b0390a433614129565b506131086131f661068a336106738a60018060a01b03166000526002602052604060002090565b90506130ff565b9081602091031261033c575161054e8161032b565b6103a261321e91613843565b6001600160a01b038481169216918214939091841561324357505082612c2257505090565b60009081526002602090815260408083206001600160a01b03949094168352929052205460ff1692503880612c16565b9061327d82610f32565b61328a604051918261049f565b828152809261329b601f1991610f32565b0190602036910137565b9190918051835103613311576132bb8151613273565b9060005b815181101561330a57806132f96132e86132db60019486613023565b516001600160a01b031690565b6132f28389613023565b5190612af6565b6133038286613023565b52016132bf565b5090925050565b60405162461bcd60e51b815260206004820152602960248201527f455243313135353a206163636f756e747320616e6420696473206c656e677468604482015268040dad2e6dac2e8c6d60bb1b6064820152608490fd5b9081602091031261033c575161054e81611b16565b1561338457565b60405162461bcd60e51b815260206004820152602860248201527f436f6e74726f6c6c61626c653a2043616c6c6572206973206e6f74206120636f604482015267373a3937b63632b960c11b6064820152608490fd5b60016133e96106018293613843565b9050161490565b90613455916133fe81613b4a565b60405163c475abff60e01b815260048101839052602481019390935291927f00000000000000000000000000000000000000000000000000000000000000006001600160a01b031690602090859081906044820190565b03816000855af19384156108115760009461358e575b506040516331a9108f60e11b8152600481019290925260209082908180602481015b03915afa6000918161356d575b506134a457505090565b6001600160a01b031630148015906134e6575b6134e25761054e906134d16001600160401b038416612d03565b906134db81613843565b50916143c1565b5090565b506040516302571be360e01b8152600481018290526020816024816001600160a01b037f0000000000000000000000000000000000000000000000000000000000000000165afa9081156108115760009161354e575b506001600160a01b03163014156134b7565b613567915060203d60201161121757611209818361049f565b3861353c565b61358791925060203d60201161121757611209818361049f565b903861349a565b6020919450916135ad61348d93833d8511610b2c57610b1b818361049f565b9491509161346b565b908060209392818452848401376000828201840152601f01601f1916010190565b9363ffffffff9061360161054e9a98959997936001600160401b039560c0895260c08901916135b6565b6001600160a01b03998a16602088015291166040860152911660608401529416608082015280840360a0909101526135b6565b600080516020614f958339815191526136556136508484613b7d565b613def565b91036136e657506040516331a9108f60e11b815260048101919091526020816024816001600160a01b037f0000000000000000000000000000000000000000000000000000000000000000165afa600091816136c5575b506136b75750600090565b6001600160a01b0316301490565b6136df91925060203d60201161121757611209818361049f565b90386136ac565b905090565b601f82116136f857505050565b6000526020600020906020601f840160051c83019310613733575b601f0160051c01905b818110613727575050565b6000815560010161371c565b9091508190613713565b9092916001600160401b0381116104c0576137628161375c8454610ccc565b846136eb565b6000601f82116001146137a3578190613794939495600092613798575b50508160011b916000199060031b1c19161790565b9055565b01359050388061377f565b601f198216946137b884600052602060002090565b91805b8781106137f35750836001959697106137d9575b505050811b019055565b0135600019600384901b60f8161c191690553880806137cf565b909260206001819286860135815501940191016137bb565b60005260066020526138206040600020610d06565b805115612bd4578061383e61383761054e93614a90565b9092614819565b613634565b6000908152600160205260409020546001600160a01b0381169160a082901c63ffffffff169160c01c90565b9092916001600160401b0342911610613886579190565b91620100008091161461389857600090565b60009150600090565b156138a857565b60405162461bcd60e51b815260206004820152603d60248201527f4552433732313a20617070726f76652063616c6c6572206973206e6f7420746f60448201527f6b656e206f776e6572206f7220617070726f76656420666f7220616c6c0000006064820152608490fd5b6001600160401b036276a6ff19911601906001600160401b038211612d2357565b62020000809116149081613946575090565b6139509150613913565b6001600160401b034291161090565b91909182516001600160401b0381116104c0576139808161375c8454610ccc565b6020601f82116001146139bc5781906137949394956000926139b15750508160011b916000199060031b1c19161790565b01519050388061377f565b601f198216906139d184600052602060002090565b9160005b818110613a0c575095836001959697106139f357505050811b019055565b015160001960f88460031b161c191690553880806137cf565b9192602060018192868b0151815501940192016139d5565b929091613a8f9262030000613a69613a4187516020890120613b4a565b9660405190613a5160408361049f565b6008825265d9db1bd8985b60ca1b6020830152614bf4565b92613a8784613a82896000526006602052604060002090565b61395f565b1791856146d4565b6001600160a01b038216613aa1575050565b7f00000000000000000000000000000000000000000000000000000000000000006001600160a01b031691823b1561033c57604051630c4b7b8560e11b815260048101929092526001600160a01b03166024820152906000908290604490829084905af1801561081157613b125750565b80610b426000610d3f9361049f565b6000546001600160a01b03163303613b3557565b63118cdaa760e01b6000523360045260246000fd5b6040516020810191600080516020614f958339815191528352604082015260408152613b7760608261049f565b51902090565b60408051602081019283529081019290925290613b7781606081015b03601f19810183528261049f565b613bb082612b84565b6001600160401b03929192429116109081613c05575b5015613bf75750613bd8602091612b84565b50905016613be35750565b63a2a7201360e01b60005260045260246000fd5b62010000915016613be35750565b6001600160a01b03161590508015613c1e575b38613bc6565b506040516302571be360e01b8152600481018490526020816024816001600160a01b037f0000000000000000000000000000000000000000000000000000000000000000165afa90811561081157600091613c84575b506001600160a01b031615613c18565b613c9d915060203d60201161121757611209818361049f565b38613c74565b9063ffffffff63fffdffff80921716036106e65750565b91613cdc9193926000526006602052613cd66040600020610d06565b90614bf4565b9160005260066020526040600020918051926001600160401b0384116104c057613d1084613d0a8354610ccc565b836136eb565b602093601f8111600114613d525780613d4292939495600091613d47575b508160011b916000199060031b1c19161790565b905590565b905084015138613d2e565b601f19811694613d6783600052602060002090565b9060005b878110613da357508260019495969710613d8a575b5050811b01905590565b85015160001960f88460031b161c191690553880613d80565b90916020600181928589015181550193019101613d6b565b90926110d261054e94613de794613ddd613dd483613843565b97915050613843565b979190889161386f565b9290506142cf565b613dfb61060182613843565b506001600160a01b031615159081613e11575090565b6040516302571be360e01b8152600481019190915290506020816024817f00000000000000000000000000000000000000000000000000000000000000006001600160a01b03165afa90811561081157600091613e78575b506001600160a01b0316301490565b613e91915060203d60201161121757611209818361049f565b38613e69565b93613eb990613ef793969296613ed1613eaf89613843565b959190869161386f565b9290986000526006602052613cd66040600020610d06565b886000526006602052613ee8604060002054610ccc565b15613f1d575b50178587614335565b6001600160a01b038116613f10575050610d3f906143d2565b91610d3f926124896104e0565b613f3490896000526006602052604060002061395f565b38613eee565b610d3f95949392613f5a916000526006602052613cd66040600020610d06565b906146d4565b916202000080831614613fe5575b6001600160401b0342911610600014613fbf57620100008116613043576040905b1615613f985750565b613faf610d3f916000526003602052604060002090565b80546001600160a01b0319169055565b60048116613fcf57604090613f8f565b63a2a7201360e01b600052600482905260246000fd5b613fee90613913565b613f6e565b9290919260005260016020526001600160401b0360c01b9060c01b169163ffffffff60a01b9060a01b169060018060a01b03161717604060002055565b9081602091031261033c575161054e816103cb565b6001600160a01b0391821681529116602082015260a06040820181905261054e949193919261408a929161407c9190860190611374565b908482036060860152611374565b916080818403910152610518565b60009060033d116140a557565b905060046000803e60005160e01c90565b600060443d1061054e576040513d600319016004823e8051913d60248401116001600160401b0384111761412357828201928351916001600160401b03831161411b573d8401600319018584016020011161411b575061054e9291016020019061049f565b949350505050565b92915050565b939461413483612d28565b614141575b505050505050565b6020946141676000926040519889978896879563bc197c8160e01b875260048701614045565b03926001600160a01b03165af16000918161429e575b506142265761418a614098565b6308c379a0146141f7575b60405162461bcd60e51b815260206004820152603460248201527f455243313135353a207472616e7366657220746f206e6f6e20455243313135356044820152732932b1b2b4bb32b91034b6b83632b6b2b73a32b960611b6064820152608490fd5b6141ff6140b6565b8061420a5750614195565b60405162461bcd60e51b815290819061309b906004830161053d565b6001600160e01b0319166343e6837f60e01b0161424857388080808080614139565b60405162461bcd60e51b815260206004820152602860248201527f455243313135353a204552433131353552656365697665722072656a656374656044820152676420746f6b656e7360c01b6064820152608490fd5b6142c191925060203d6020116142c8575b6142b9818361049f565b810190614030565b903861417d565b503d6142af565b919063ffff000016151590816142e8575b506106e65750565b600191501615386142e0565b916001600160401b0381166001600160401b0384161161432d575b506001600160401b0381166001600160401b038316106136e6575090565b91503861430f565b93847f39873f00c80f4f94b7bd1594aebcf650f003545b74824d57ddf4939e3ff3a34b60208561437a856001600160401b039889986143748289614c89565b87613ff3565b63ffffffff60405191168152a21691168111614394575050565b60207ff675815a0817338f93a7da433f6bd5f5542f1029b11b455191ac96c7f6a9b13291604051908152a2565b90610d3f93929161315f8382614c89565b6143db816133da565b6106e6576143e8816148b6565b7f00000000000000000000000000000000000000000000000000000000000000006001600160a01b0316803b1561033c57604051635b0fc9c360e01b81526004810183905260006024820181905290918290604490829084905af1801561081157614471575b5060405160008152600080516020614f758339815191529080602081015b0390a2565b80610b4260006144809361049f565b3861444e565b90614490826133da565b61131c5761449d826148b6565b7f00000000000000000000000000000000000000000000000000000000000000006001600160a01b0316803b1561033c57604051635b0fc9c360e01b8152600481018490526001600160a01b0383166024820152906000908290604490829084905af1801561081157614536575b506040516001600160a01b039091168152600080516020614f7583398151915290806020810161446c565b806145436000809361049f565b80031261033c573861450b565b929363ffffffff60609396956145766001600160401b0394608088526080880190610518565b6001600160a01b03909816602087015216604085015216910152565b917f8ce7013e8abebc55c3890a68f5a27c67c3f7efa64e584de5fb22363c606fd340916145c0600085614c89565b6145c984613843565b50506001600160a01b03166146ac575b6000806145e586612b84565b91939163ffff0000906001600160401b03811690816146a4575b50421115614696575b50919261464c9250614623906001600160a01b031615614e49565b6001600160a01b03851692614639841515614e95565b61464530851415614eeb565b8588613ff3565b60408051868152600160208201526000913391600080516020614f558339815191529190a461468461467c6104e0565b858433614ce8565b61446c60008060405194859485614550565b16915061462361464c614608565b9350386145ff565b6146b5846148b6565b83600080516020614f75833981519152602060405160008152a26145d9565b9361446c907f8ce7013e8abebc55c3890a68f5a27c67c3f7efa64e584de5fb22363c606fd340946147058188614c89565b61470e87613843565b50506001600160a01b03166147f1575b818161472989612b84565b91939163ffff0000906001600160401b038082169190891682116147e9575b504211156147d9575b509192614795925061476c906001600160a01b031615614e49565b6001600160a01b03881692614782841515614e95565b61478e30851415614eeb565b888b613ff3565b60408051898152600160208201526000913391600080516020614f558339815191529190a46147cd6147c56104e0565b888733614ce8565b60405194859485614550565b168417915061476c614795614751565b935038614748565b6147fa876148b6565b86600080516020614f75833981519152602060405160008152a261471e565b6148238282614b38565b9091821561485657614836929350614819565b60408051602081019283529081019290925290613b778160608101613b99565b51600019810193925083119050612d23570361487157600090565b60405162461bcd60e51b815260206004820152601d60248201527f6e616d65686173683a204a756e6b20617420656e64206f66206e616d650000006044820152606490fd5b6000906148cf6148c582613843565b829391819361386f565b9190508385526003602052604085206bffffffffffffffffffffffff60a01b815416905583855260016020526001600160401b0360c01b9060c01b169063ffffffff60a01b9060a01b161760408420556040519182526001602083015260018060a01b031690600080516020614f5583398151915260403392a4565b92916149649161495a82613843565b949190859161386f565b9590614971858886613f60565b6001600160a01b0390811690821661498a82821461303c565b6001600160a01b0384169182146149d2576149ac600196610d3f998688613ff3565b604051858152866020820152600080516020614f5583398151915260403392a433614d8c565b5050505050505050565b906149ed94939291613ddd83613843565b6149f8888287613f60565b6001861480614a60575b614a0b9061303c565b6001600160a01b03848116921682146149d257610d3f97614a2d918587613ff3565b60408051858152602081018790526001600160a01b038416913391600080516020614f558339815191529190a433614d8c565b506001600160a01b0382811690841614614a02565b9060018201809211612d2357565b91908201809211612d2357565b90815115614af357815115613037576020820151614ab29060f81c5b60ff1690565b91828015614ae357614ad5614ade9161054e93614acf6000614a75565b90614e2f565b935b6000614a83565b614a75565b505061054e614ade600093614ad7565b60405162461bcd60e51b815260206004820152601e60248201527f726561644c6162656c3a20496e646578206f7574206f6620626f756e647300006044820152606490fd5b9190918051831015614af3578051831015613037576020818401015161054e91614ade91614b689060f81c614aac565b90818015614b8357614b7d91614acf88614a75565b94614a83565b5050600094614a83565b600082815260036020526040902080546001600160a01b0319166001600160a01b039092169182179055614bc361060183613843565b506001600160a01b03167f8c5be1e5ebec7d5bd14f71427d1e84f3dd0314c0f7b2291e5b200ac8c7c3b925600080a4565b906001825110614c785760ff825111614c5d5761054e90602183519160405194859360ff60f81b9060f81b166020850152614c3881518092602086880191016104f5565b8301614c4d82518093602086850191016104f5565b010103601f19810183528261049f565b60405163e3ba295f60e01b81528061309b846004830161053d565b631406d65b60e11b60005260046000fd5b9061ffff811615159081614c9f57506106e65750565b62010001915081161415386142e0565b6001600160a01b039182168152911660208201526040810191909152606081019190915260a06080820181905261054e92910190610518565b929190614cf481612d28565b614cff575b50505050565b600080600195614d286020966040519889978896879563f23a6e6160e01b875260048701614caf565b03926001600160a01b03165af160009181614d6b575b50614d4b5761418a614098565b6001600160e01b031916630dc5919f60e01b016142485738808080614cf9565b614d8591925060203d6020116142c8576142b9818361049f565b9038614d3e565b9394614d9783612d28565b614da357505050505050565b602094614dc96000926040519889978896879563f23a6e6160e01b875260048701614caf565b03926001600160a01b03165af160009181614e0e575b50614dec5761418a614098565b6001600160e01b031916630dc5919f60e01b0161424857388080808080614139565b614e2891925060203d6020116142c8576142b9818361049f565b9038614ddf565b90828101808211612d235782511061033c57016020012090565b15614e5057565b60405162461bcd60e51b815260206004820152601f60248201527f455243313135353a206d696e74206f66206578697374696e6720746f6b656e006044820152606490fd5b15614e9c57565b60405162461bcd60e51b815260206004820152602160248201527f455243313135353a206d696e7420746f20746865207a65726f206164647265736044820152607360f81b6064820152608490fd5b15614ef257565b60405162461bcd60e51b815260206004820152603460248201527f455243313135353a206e65774f776e65722063616e6e6f74206265207468652060448201527313985b5955dc985c1c195c8818dbdb9d1c9858dd60621b6064820152608490fdfec3d58168c5ae7397731d063d5bbf3d657854427343f4c083240f7aacaa2d0f62ee2ba1195c65bcf218a83d874335c6bf9d9067b4c672f3c3bf16cf40de7586c4792f878ece97d22e612f52be21b22b7cd412ee91085e091bf8237322fc3fe4e6a2646970667358221220114fcb1031d941ad8c216c317eec141de3e86b8199cfafa6432209dfd0c0d5b964736f6c634300081a0033",
  "linkReferences": {},
  "deployedLinkReferences": {}
}