{
  "_format": "hh-sol-artifact-1",
  "contractName": "PublicResolver",
  "sourceName": "contracts/resolvers/PublicResolver.sol",
  "abi": [
    {
      "inputs": [
        {
          "internalType": "contract ENS",
          "name": "_ens",
          "type": "address"
        },
        {
          "internalType": "contract INameWrapper",
          "name": "wrapperAddress",
          "type": "address"
        },
        {
          "internalType": "address",
          "name": "_trustedETHController",
          "type": "address"
        },
        {
          "internalType": "address",
          "name": "_trustedReverseRegistrar",
          "type": "address"
        }
      ],
      "stateMutability": "nonpayable",
      "type": "constructor"
    },
    {
      "anonymous": false,
      "inputs": [
        {
          "indexed": true,
          "internalType": "bytes32",
          "name": "node",
          "type": "bytes32"
        },
        {
          "indexed": true,
          "internalType": "uint256",
          "name": "contentType",
          "type": "uint256"
        }
      ],
      "name": "ABIChanged",
      "type": "event"
    },
    {
      "anonymous": false,
      "inputs": [
        {
          "indexed": true,
          "internalType": "bytes32",
          "name": "node",
          "type": "bytes32"
        },
        {
          "indexed": false,
          "internalType": "address",
          "name": "a",
          "type": "address"
        }
      ],
      "name": "AddrChanged",
      "type": "event"
    },
    {
      "anonymous": false,
      "inputs": [
        {
          "indexed": true,
          "internalType": "bytes32",
          "name": "node",
          "type": "bytes32"
        },
        {
          "indexed": false,
          "internalType": "uint256",
          "name": "coinType",
          "type": "uint256"
        },
        {
          "indexed": false,
          "internalType": "bytes",
          "name": "newAddress",
          "type": "bytes"
        }
      ],
      "name": "AddressChanged",
      "type": "event"
    },
    {
      "anonymous": false,
      "inputs": [
        {
          "indexed": true,
          "internalType": "address",
          "name": "owner",
          "type": "address"
        },
        {
          "indexed": true,
          "internalType": "address",
          "name": "operator",
          "type": "address"
        },
        {
          "indexed": false,
          "internalType": "bool",
          "name": "approved",
          "type": "bool"
        }
      ],
      "name": "ApprovalForAll",
      "type": "event"
    },
    {
      "anonymous": false,
      "inputs": [
        {
          "indexed": false,
          "internalType": "address",
          "name": "owner",
          "type": "address"
        },
        {
          "indexed": true,
          "internalType": "bytes32",
          "name": "node",
          "type": "bytes32"
        },
        {
          "indexed": true,
          "internalType": "address",
          "name": "delegate",
          "type": "address"
        },
        {
          "indexed": true,
          "internalType": "bool",
          "name": "approved",
          "type": "bool"
        }
      ],
      "name": "Approved",
      "type": "event"
    },
    {
      "anonymous": false,
      "inputs": [
        {
          "indexed": true,
          "internalType": "bytes32",
          "name": "node",
          "type": "bytes32"
        },
        {
          "indexed": false,
          "internalType": "bytes",
          "name": "hash",
          "type": "bytes"
        }
      ],
      "name": "ContenthashChanged",
      "type": "event"
    },
    {
      "anonymous": false,
      "inputs": [
        {
          "indexed": true,
          "internalType": "bytes32",
          "name": "node",
          "type": "bytes32"
        },
        {
          "indexed": true,
          "internalType": "bytes4",
          "name": "interfaceID",
          "type": "bytes4"
        },
        {
          "indexed": false,
          "internalType": "address",
          "name": "implementer",
          "type": "address"
        }
      ],
      "name": "InterfaceChanged",
      "type": "event"
    },
    {
      "anonymous": false,
      "inputs": [
        {
          "indexed": true,
          "internalType": "bytes32",
          "name": "node",
          "type": "bytes32"
        },
        {
          "indexed": false,
          "internalType": "string",
          "name": "name",
          "type": "string"
        }
      ],
      "name": "NameChanged",
      "type": "event"
    },
    {
      "anonymous": false,
      "inputs": [
        {
          "indexed": true,
          "internalType": "bytes32",
          "name": "node",
          "type": "bytes32"
        },
        {
          "indexed": false,
          "internalType": "bytes32",
          "name": "x",
          "type": "bytes32"
        },
        {
          "indexed": false,
          "internalType": "bytes32",
          "name": "y",
          "type": "bytes32"
        }
      ],
      "name": "PubkeyChanged",
      "type": "event"
    },
    {
      "anonymous": false,
      "inputs": [
        {
          "indexed": true,
          "internalType": "bytes32",
          "name": "node",
          "type": "bytes32"
        },
        {
          "indexed": true,
          "internalType": "string",
          "name": "indexedKey",
          "type": "string"
        },
        {
          "indexed": false,
          "internalType": "string",
          "name": "key",
          "type": "string"
        },
        {
          "indexed": false,
          "internalType": "string",
          "name": "value",
          "type": "string"
        }
      ],
      "name": "TextChanged",
      "type": "event"
    },
    {
      "anonymous": false,
      "inputs": [
        {
          "indexed": true,
          "internalType": "bytes32",
          "name": "node",
          "type": "bytes32"
        },
        {
          "indexed": false,
          "internalType": "uint64",
          "name": "newVersion",
          "type": "uint64"
        }
      ],
      "name": "VersionChanged",
      "type": "event"
    },
    {
      "inputs": [
        {
          "internalType": "bytes32",
          "name": "node",
          "type": "bytes32"
        },
        {
          "internalType": "uint256",
          "name": "contentTypes",
          "type": "uint256"
        }
      ],
      "name": "ABI",
      "outputs": [
        {
          "internalType": "uint256",
          "name": "",
          "type": "uint256"
        },
        {
          "internalType": "bytes",
          "name": "",
          "type": "bytes"
        }
      ],
      "stateMutability": "view",
      "type": "function"
    },
    {
      "inputs": [
        {
          "internalType": "bytes32",
          "name": "node",
          "type": "bytes32"
        }
      ],
      "name": "addr",
      "outputs": [
        {
          "internalType": "address payable",
          "name": "",
          "type": "address"
        }
      ],
      "stateMutability": "view",
      "type": "function"
    },
    {
      "inputs": [
        {
          "internalType": "bytes32",
          "name": "node",
          "type": "bytes32"
        },
        {
          "internalType": "uint256",
          "name": "coinType",
          "type": "uint256"
        }
      ],
      "name": "addr",
      "outputs": [
        {
          "internalType": "bytes",
          "name": "",
          "type": "bytes"
        }
      ],
      "stateMutability": "view",
      "type": "function"
    },
    {
      "inputs": [
        {
          "internalType": "bytes32",
          "name": "node",
          "type": "bytes32"
        },
        {
          "internalType": "address",
          "name": "delegate",
          "type": "address"
        },
        {
          "internalType": "bool",
          "name": "approved",
          "type": "bool"
        }
      ],
      "name": "approve",
      "outputs": [],
      "stateMutability": "nonpayable",
      "type": "function"
    },
    {
      "inputs": [
        {
          "internalType": "bytes32",
          "name": "node",
          "type": "bytes32"
        }
      ],
      "name": "clearRecords",
      "outputs": [],
      "stateMutability": "nonpayable",
      "type": "function"
    },
    {
      "inputs": [
        {
          "internalType": "bytes32",
          "name": "node",
          "type": "bytes32"
        }
      ],
      "name": "contenthash",
      "outputs": [
        {
          "internalType": "bytes",
          "name": "",
          "type": "bytes"
        }
      ],
      "stateMutability": "view",
      "type": "function"
    },
    {
      "inputs": [
        {
          "internalType": "bytes32",
          "name": "node",
          "type": "bytes32"
        },
        {
          "internalType": "bytes4",
          "name": "interfaceID",
          "type": "bytes4"
        }
      ],
      "name": "interfaceImplementer",
      "outputs": [
        {
          "internalType": "address",
          "name": "",
          "type": "address"
        }
      ],
      "stateMutability": "view",
      "type": "function"
    },
    {
      "inputs": [
        {
          "internalType": "address",
          "name": "owner",
          "type": "address"
        },
        {
          "internalType": "bytes32",
          "name": "node",
          "type": "bytes32"
        },
        {
          "internalType": "address",
          "name": "delegate",
          "type": "address"
        }
      ],
      "name": "isApprovedFor",
      "outputs": [
        {
          "internalType": "bool",
          "name": "",
          "type": "bool"
        }
      ],
      "stateMutability": "view",
      "type": "function"
    },
    {
      "inputs": [
        {
          "internalType": "address",
          "name": "account",
          "type": "address"
        },
        {
          "internalType": "address",
          "name": "operator",
          "type": "address"
        }
      ],
      "name": "isApprovedForAll",
      "outputs": [
        {
          "internalType": "bool",
          "name": "",
          "type": "bool"
        }
      ],
      "stateMutability": "view",
      "type": "function"
    },
    {
      "inputs": [
        {
          "internalType": "bytes[]",
          "name": "data",
          "type": "bytes[]"
        }
      ],
      "name": "multicall",
      "outputs": [
        {
          "internalType": "bytes[]",
          "name": "results",
          "type": "bytes[]"
        }
      ],
      "stateMutability": "nonpayable",
      "type": "function"
    },
    {
      "inputs": [
        {
          "internalType": "bytes32",
          "name": "nodehash",
          "type": "bytes32"
        },
        {
          "internalType": "bytes[]",
          "name": "data",
          "type": "bytes[]"
        }
      ],
      "name": "multicallWithNodeCheck",
      "outputs": [
        {
          "internalType": "bytes[]",
          "name": "results",
          "type": "bytes[]"
        }
      ],
      "stateMutability": "nonpayable",
      "type": "function"
    },
    {
      "inputs": [
        {
          "internalType": "bytes32",
          "name": "node",
          "type": "bytes32"
        }
      ],
      "name": "name",
      "outputs": [
        {
          "internalType": "string",
          "name": "",
          "type": "string"
        }
      ],
      "stateMutability": "view",
      "type": "function"
    },
    {
      "inputs": [
        {
          "internalType": "bytes32",
          "name": "node",
          "type": "bytes32"
        }
      ],
      "name": "pubkey",
      "outputs": [
        {
          "internalType": "bytes32",
          "name": "x",
          "type": "bytes32"
        },
        {
          "internalType": "bytes32",
          "name": "y",
          "type": "bytes32"
        }
      ],
      "stateMutability": "view",
      "type": "function"
    },
    {
      "inputs": [
        {
          "internalType": "bytes32",
          "name": "",
          "type": "bytes32"
        }
      ],
      "name": "recordVersions",
      "outputs": [
        {
          "internalType": "uint64",
          "name": "",
          "type": "uint64"
        }
      ],
      "stateMutability": "view",
      "type": "function"
    },
    {
      "inputs": [
        {
          "internalType": "bytes32",
          "name": "node",
          "type": "bytes32"
        },
        {
          "internalType": "uint256",
          "name": "contentType",
          "type": "uint256"
        },
        {
          "internalType": "bytes",
          "name": "data",
          "type": "bytes"
        }
      ],
      "name": "setABI",
      "outputs": [],
      "stateMutability": "nonpayable",
      "type": "function"
    },
    {
      "inputs": [
        {
          "internalType": "bytes32",
          "name": "node",
          "type": "bytes32"
        },
        {
          "internalType": "uint256",
          "name": "coinType",
          "type": "uint256"
        },
        {
          "internalType": "bytes",
          "name": "a",
          "type": "bytes"
        }
      ],
      "name": "setAddr",
      "outputs": [],
      "stateMutability": "nonpayable",
      "type": "function"
    },
    {
      "inputs": [
        {
          "internalType": "bytes32",
          "name": "node",
          "type": "bytes32"
        },
        {
          "internalType": "address",
          "name": "a",
          "type": "address"
        }
      ],
      "name": "setAddr",
      "outputs": [],
      "stateMutability": "nonpayable",
      "type": "function"
    },
    {
      "inputs": [
        {
          "internalType": "address",
          "name": "operator",
          "type": "address"
        },
        {
          "internalType": "bool",
          "name": "approved",
          "type": "bool"
        }
      ],
      "name": "setApprovalForAll",
      "outputs": [],
      "stateMutability": "nonpayable",
      "type": "function"
    },
    {
      "inputs": [
        {
          "internalType": "bytes32",
          "name": "node",
          "type": "bytes32"
        },
        {
          "internalType": "bytes",
          "name": "hash",
          "type": "bytes"
        }
      ],
      "name": "setContenthash",
      "outputs": [],
      "stateMutability": "nonpayable",
      "type": "function"
    },
    {
      "inputs": [
        {
          "internalType": "address",
          "name": "newOwner",
          "type": "address"
        }
      ],
      "name": "setContractOwner",
      "outputs": [],
      "stateMutability": "nonpayable",
      "type": "function"
    },
    {
      "inputs": [
        {
          "internalType": "bytes32",
          "name": "node",
          "type": "bytes32"
        },
        {
          "internalType": "bytes4",
          "name": "interfaceID",
          "type": "bytes4"
        },
        {
          "internalType": "address",
          "name": "implementer",
          "type": "address"
        }
      ],
      "name": "setInterface",
      "outputs": [],
      "stateMutability": "nonpayable",
      "type": "function"
    },
    {
      "inputs": [
        {
          "internalType": "bytes32",
          "name": "node",
          "type": "bytes32"
        },
        {
          "internalType": "string",
          "name": "newName",
          "type": "string"
        }
      ],
      "name": "setName",
      "outputs": [],
      "stateMutability": "nonpayable",
      "type": "function"
    },
    {
      "inputs": [
        {
          "internalType": "bytes32",
          "name": "node",
          "type": "bytes32"
        },
        {
          "internalType": "bytes32",
          "name": "x",
          "type": "bytes32"
        },
        {
          "internalType": "bytes32",
          "name": "y",
          "type": "bytes32"
        }
      ],
      "name": "setPubkey",
      "outputs": [],
      "stateMutability": "nonpayable",
      "type": "function"
    },
    {
      "inputs": [
        {
          "internalType": "bytes32",
          "name": "node",
          "type": "bytes32"
        },
        {
          "internalType": "string",
          "name": "key",
          "type": "string"
        },
        {
          "internalType": "string",
          "name": "value",
          "type": "string"
        }
      ],
      "name": "setText",
      "outputs": [],
      "stateMutability": "nonpayable",
      "type": "function"
    },
    {
      "inputs": [
        {
          "internalType": "bytes4",
          "name": "interfaceID",
          "type": "bytes4"
        }
      ],
      "name": "supportsInterface",
      "outputs": [
        {
          "internalType": "bool",
          "name": "",
          "type": "bool"
        }
      ],
      "stateMutability": "view",
      "type": "function"
    },
    {
      "inputs": [
        {
          "internalType": "bytes32",
          "name": "node",
          "type": "bytes32"
        },
        {
          "internalType": "string",
          "name": "key",
          "type": "string"
        }
      ],
      "name": "text",
      "outputs": [
        {
          "internalType": "string",
          "name": "",
          "type": "string"
        }
      ],
      "stateMutability": "view",
      "type": "function"
    }
  ],
  "bytecode": "0x6101008060405234610168576080816122da803803809161002082856101bf565b8339810103126101685780516001600160a01b0381169190828103610168576020820151906001600160a01b03821682036101685760246020610071606061006a604088016101f8565b96016101f8565b95604051928380926302571be360e01b82527f91d1777781884d03a6757a803996e38de2a42967fb37eeaca72729271025a9e260048301525afa90811561017457600091610180575b50604051630f41a04d60e11b815233600482015290602090829060249082906000906001600160a01b03165af1801561017457610144575b5060805260a05260c05260e052600880546001600160a01b031916331790556040516120cd908161020d823960805181611dbe015260a05181611dfa015260c05181611d5f015260e05181611f530152f35b602090813d831161016d575b61015a81836101bf565b8101031261016857386100f2565b600080fd5b503d610150565b6040513d6000823e3d90fd5b90506020813d6020116101b7575b8161019b602093836101bf565b810103126101685760206101b06000926101f8565b91506100ba565b3d915061018e565b601f909101601f19168101906001600160401b038211908210176101e257604052565b634e487b7160e01b600052604160045260246000fd5b51906001600160a01b03821682036101685756fe6080604052600436101561001257600080fd5b60003560e01c806301ffc9a7146101b757806310f13a8c146101b2578063124a319c146101ad5780632203ab56146101a857806329cd62ea146101a3578063304e6ade1461019e5780633603d758146101995780633b3b57de1461019457806359d1d43c1461018f578063623195b01461018a578063691f34311461018557806377372213146101805780638b95dd711461017b578063a22cb46514610176578063a34d42b814610171578063a4b91a011461016c578063a9784b3e14610167578063ac9650d814610162578063bc1c58d11461015d578063c869023314610158578063d5fa2b0014610153578063d700ff331461014e578063e32954eb14610149578063e59d895d14610144578063e985e9c51461013f5763f1cb7e061461013a57600080fd5b611542565b6114da565b6113f3565b6112dc565b6112a7565b61118c565b611136565b6110dc565b610ffb565b610ef2565b610e18565b610d78565b610c71565b610bc7565b610a2d565b6109d3565b610909565b610887565b610858565b610796565b610625565b610536565b610507565b61045b565b610364565b6101ef565b600435906001600160e01b0319821682036101d357565b600080fd5b602435906001600160e01b0319821682036101d357565b346101d35760203660031901126101d35761023a6001600160e01b03196102146101bc565b16631674750f60e21b811490811561023e575b5060405190151581529081906020820190565b0390f35b63c869023360e01b811491508115610258575b5038610227565b63691f343160e01b811491508115610272575b5038610251565b6304928c6760e21b81149150811561028c575b503861026b565b63bc1c58d160e01b8114915081156102a6575b5038610285565b631d9dabef60e11b811491508115610326575b81156102c7575b503861029f565b631101d5ab60e11b8114915081156102e1575b50386102c0565b63d700ff3360e01b8114915081156102fb575b50386102da565b634fbf043360e01b811491508115610315575b50386102f4565b6301ffc9a760e01b1490503861030e565b6378e5bf0360e11b811491506102b9565b9181601f840112156101d3578235916001600160401b0383116101d357602083818601950101116101d357565b346101d35760603660031901126101d3576004356024356001600160401b0381116101d357610397903690600401610337565b6044929192356001600160401b0381116101d3576103b9903690600401610337565b9190936103c584611d5c565b156101d3576104567f448bc014f1536726cf8d54ff3d6481ed3cbc683c2591ca204274009afa09b1a1938560005260006020526001600160401b0360406000205416600052600760205260406000208660005260205261043f81886040600020602060405180928a8a83378a82019081520301902061164e565b610449848461171c565b9660405194859485611752565b0390a3005b346101d35760403660031901126101d357602061048260043561047c6101d8565b906117e9565b6040516001600160a01b039091168152f35b919082519283825260005b8481106104c0575050826000602080949584010152601f8019910116010190565b8060208092840101518282860101520161049f565b9060406104ed92603c81528160208201520190610494565b90565b6040906104ed939281528160208201520190610494565b346101d35760403660031901126101d357610526602435600435611a79565b9061023a604051928392836104f0565b346101d35760603660031901126101d35760043560243560443561055983611d5c565b156101d3577f1d6f5e03d3f63eb58751986629a5439baee5079ff04f345becb66e23eb154e469160405161058c81610b70565b8181526001602082018481528660005260006020526001600160401b03604060002054166000526006602052604060002087600052602052604060002092518355519101556105ed6040519283928360209093929193604081019481520152565b0390a2005b9060406003198301126101d35760043591602435906001600160401b0382116101d35761062191600401610337565b9091565b346101d357610633366105f2565b61063e839293611d5c565b156101d3578160005260006020526001600160401b036040600020541660005260036020526040600020826000526020526040600020926001600160401b038211610791576106978261069186546115c2565b866115fc565b600093601f8311600114610706576106e983807fe379c1624ed7e714cc0937528a32359d69d5281337765313dba4e081b72d757896976000916106fb575b508160011b916000199060031b1c19161790565b90555b6105ed60405192839283611b22565b9050840135386106d5565b601f1983169461071b82600052602060002090565b90805b8781106107795750847fe379c1624ed7e714cc0937528a32359d69d5281337765313dba4e081b72d757896971061075f575b5050600183811b0190556106ec565b830135600019600386901b60f8161c191690553880610750565b9091602060018192858801358155019301910161071e565b610b5a565b346101d35760203660031901126101d3576004356107b381611d5c565b156101d357806000526000602052604060002080546001600160401b0381166001600160401b0381146108535760016001600160401b03910116906001600160401b0319161790558060005260006020527fc6621ccb8f3f5a04bb6502154b2caf6adf5983fe76dfef1cfc9c42e3579db4446105ed6001600160401b0360406000205416604051918291829190916001600160401b036020820193169052565b611b33565b346101d35760203660031901126101d3576020610482600435611b49565b9060206104ed928181520190610494565b346101d35761023a6108ee6108f560206108a0366105f2565b929180600052600083526001600160401b03604060002054166000526007835260406000209060005282526040600020836040519485938437820190815203019020604051928380926119d9565b0382610b8b565b604051918291602083526020830190610494565b346101d35760603660031901126101d3576024356004356044356001600160401b0381116101d35761093f903690600401610337565b61094883611d5c565b156101d35760001984018481116108535784166101d3576109ac918360005260006020526001600160401b036040600020541660005260016020526040600020846000526020526109a785604060002090600052602052604060002090565b61164e565b7faa121bbeef5f32f5961a2a28966e769023910fc9479059ee3495d4c1a696efe3600080a3005b346101d35760203660031901126101d3576004358060005260006020526001600160401b0360406000205416600052600560205260406000209060005260205261023a6108ee6108f56040600020604051928380926119d9565b346101d357610a3b366105f2565b610a46839293611d5c565b156101d3578160005260006020526001600160401b036040600020541660005260056020526040600020826000526020526040600020926001600160401b03821161079157610a998261069186546115c2565b600093601f8311600114610aea576106e983807fb7d29e911041e8d9b843369e890bcb72c9388692ba48b65ac54e7214c4c348f796976000916106fb57508160011b916000199060031b1c19161790565b601f19831694610aff82600052602060002090565b90805b878110610b425750847fb7d29e911041e8d9b843369e890bcb72c9388692ba48b65ac54e7214c4c348f796971061075f575050600183811b0190556106ec565b90916020600181928588013581550193019101610b02565b634e487b7160e01b600052604160045260246000fd5b604081019081106001600160401b0382111761079157604052565b90601f801991011681019081106001600160401b0382111761079157604052565b6001600160401b03811161079157601f01601f191660200190565b346101d35760603660031901126101d3576044356004356024356001600160401b0383116101d357366023840112156101d357826004013591610c0983610bac565b92610c176040519485610b8b565b80845236602482870101116101d3576020816000926024610c4098018388013785010152611ba0565b005b6001600160a01b038116036101d357565b6024359081151582036101d357565b6044359081151582036101d357565b346101d35760403660031901126101d357600435610c8e81610c42565b610c96610c53565b6001600160a01b03821691338314610d2157336000908152600960205260409020610ceb918391610cda91905b9060018060a01b0316600052602052604060002090565b9060ff801983541691151516179055565b604051901515815233907f17307eab39ab6107e8899845ad3d59bd9653f200f220920489ca2b5937696c31908060208101610456565b60405162461bcd60e51b815260206004820152602960248201527f455243313135353a2073657474696e6720617070726f76616c20737461747573604482015268103337b91039b2b63360b91b6064820152608490fd5b346101d35760203660031901126101d357600435610d9581610c42565b600854906001600160a01b0382163303610dc5576001600160a01b03166001600160a01b03199190911617600855005b60405162461bcd60e51b815260206004820152602560248201527f4f6e6c7920636f6e7472616374206f776e65722063616e20736574206e65772060448201526437bbb732b960d91b6064820152608490fd5b346101d35760603660031901126101d357600435602435610e3881610c42565b610e40610c62565b916001600160a01b03821691338314610eae5783610cda610e7c9233600052600a602052610cc385604060002090600052602052604060002090565b604051338152921515927ff0ddb3b04746704017f9aa8bd728fcc2c1d11675041205350018915f5e4750a090602090a4005b606460405162461bcd60e51b815260206004820152602060248201527f53657474696e672064656c65676174652073746174757320666f722073656c666044820152fd5b346101d35760603660031901126101d35760ff610f5c600435610f1481610c42565b60243560443591610f2483610c42565b60018060a01b0316600052600a60205260406000209060005260205260406000209060018060a01b0316600052602052604060002090565b54604051911615158152602090f35b9181601f840112156101d3578235916001600160401b0383116101d3576020808501948460051b0101116101d357565b602081016020825282518091526040820191602060408360051b8301019401926000915b838310610fce57505050505090565b9091929394602080610fec600193603f198682030187528951610494565b97019301930191939290610fbf565b346101d35760203660031901126101d3576004356001600160401b0381116101d35761102b903690600401610f6b565b90600061103783611f94565b926110456040519485610b8b565b808452601f1961105482611f94565b0160005b8181106110cb57505060005b818110611079576040518061023a8782610f9b565b8083806110896001948689611fab565b90611099604051809381936115b4565b0390305af46110af6110a961178e565b916115ad565b6110b98288612083565b526110c48187612083565b5001611064565b806060602080938901015201611058565b346101d35760203660031901126101d3576004358060005260006020526001600160401b0360406000205416600052600360205260406000209060005260205261023a6108ee6108f56040600020604051928380926119d9565b346101d35760203660031901126101d357600435600081815260208181526040808320546001600160401b0316835260068252808320938352928152908290208054600190910154835191825291810191909152f35b346101d35760403660031901126101d3576004356024356111ac81610c42565b6111b582611d5c565b156101d3576040918251916111ca8484610b8b565b601483526020830190601f19850136833760601b90526111e981611d5c565b156101d35782816112a2927f65412581168e88a1e60c6459d7f44ae83ad0832e670826c05a4e2476b57af752610c4096518061122588826104d5565b0390a2807f52d7d861f09ab3d26239d492e8968629f95e9e318cf0b73bfddc441522a15fd2602061125587611f81565b85516001600160a01b039091168152a28060005260006020526001600160401b0382600020541660005260026020528160002090600052602052600020603c600052602052604060002090565b611c76565b346101d35760203660031901126101d357600435600052600060205260206001600160401b0360406000205416604051908152f35b346101d35760403660031901126101d3576004356024356001600160401b0381116101d35761130f903690600401610f6b565b60009291929061131e81611f94565b9361132c6040519586610b8b565b818552601f1961133b83611f94565b0160005b8181106113e25750508315159360005b838110611364576040518061023a8982610f9b565b600190866113b6575b858061137a838888611fab565b9061138a604051809381936115b4565b0390305af461139a6110a961178e565b6113a4828a612083565b526113af8189612083565b500161134f565b6113dd836113d76113d16113cb858a8a611fab565b90611fec565b90611ffd565b1461201a565b61136d565b806060602080938a0101520161133f565b346101d35760603660031901126101d35760043561140f6101d8565b906044359161141d83610c42565b61142682611d5c565b156101d35760207f7c69f06bea0bdef565b709e93a147836b0063ba2dd89f02d0b7e8d931e6a6daa9183600052600082526001600160401b03604060002054166000526004825260406000208460005282526114bc8561149d8360406000209063ffffffff60e01b16600052602052604060002090565b80546001600160a01b0319166001600160a01b03909216919091179055565b6040516001600160a01b0390951685526001600160e01b03191693a3005b346101d35760403660031901126101d357602060ff6115366004356114fe81610c42565b6024359061150b82610c42565b60018060a01b03166000526009845260406000209060018060a01b0316600052602052604060002090565b54166040519015158152f35b346101d35760403660031901126101d35761023a6108ee6115a16040600435602435600091808352826020526001600160401b0384842054168352600260205283832090835260205282822090825260205220604051928380926119d9565b60405191829182610876565b156101d357565b908092918237016000815290565b90600182811c921680156115f2575b60208310146115dc57565b634e487b7160e01b600052602260045260246000fd5b91607f16916115d1565b601f821161160957505050565b6000526020600020906020601f840160051c83019310611644575b601f0160051c01905b818110611638575050565b6000815560010161162d565b9091508190611624565b9092916001600160401b038111610791576116738161166d84546115c2565b846115fc565b6000601f82116001146116b45781906116a59394956000926116a9575b50508160011b916000199060031b1c19161790565b9055565b013590503880611690565b601f198216946116c984600052602060002090565b91805b8781106117045750836001959697106116ea575b505050811b019055565b0135600019600384901b60f8161c191690553880806116e0565b909260206001819286860135815501940191016116cc565b81604051928392833781016000815203902090565b908060209392818452848401376000828201840152601f01601f1916010190565b929061176b906104ed9593604086526040860191611731565b926020818503910152611731565b60405190611788602083610b8b565b60008252565b3d156117b9573d9061179f82610bac565b916117ad6040519384610b8b565b82523d6000602084013e565b606090565b634e487b7160e01b600052603260045260246000fd5b8051601f10156117e457603f0190565b6117be565b61186861185b836118438461183461181b61180e836000526000602052604060002090565b546001600160401b031690565b6001600160401b03166000526004602052604060002090565b90600052602052604060002090565b9063ffffffff60e01b16600052602052604060002090565b546001600160a01b031690565b6001600160a01b0381166119c9575061188361188f91611b49565b6001600160a01b031690565b906001600160a01b03821615611995576040516301ffc9a760e01b6020820181815260248301919091526000918291906118d681604481015b03601f198101835282610b8b565b5190855afa6118e361178e565b90159081156119bc575b811561199c575b50611995576040516301ffc9a760e01b602082019081526001600160e01b03199092166024820152600091829161192e81604481016118c8565b5190845afa61193b61178e565b9015908115611988575b811561195a575b506119545790565b50600090565b6001600160f81b0319915061198090611972906117d4565b516001600160f81b03191690565b16153861194c565b9050602081511090611945565b5050600090565b6001600160f81b031991506119b490611972906117d4565b1615386118f4565b90506020815110906118ed565b91505090565b6104ed90546115c2565b600092918154916119e9836115c2565b8083529260018116908115611a3f5750600114611a0557505050565b60009081526020812093945091925b838310611a25575060209250010190565b600181602092949394548385870101520191019190611a14565b915050602093945060ff929192191683830152151560051b010190565b90611a77611a7092604051938480926119d9565b0383610b8b565b565b9190918060005260006020526001600160401b03604060002054166000526001602052604060002090600052602052604060002060015b83811115611ac95750509050611ac4611779565b600091565b838116151580611afe575b611ae05760011b611ab0565b9250611af9836104ed9290600052602052604060002090565b611a5c565b50611b1b611b16828490600052602052604060002090565b6119cf565b1515611ad4565b9160206104ed938181520191611731565b634e487b7160e01b600052601160045260246000fd5b611b9060406108ee92600090808252816020526001600160401b03838320541682526002602052828220908252602052818120603c825260205220604051928380926119d9565b805115611954576104ed90611f81565b9190611bab83611d5c565b156101d35782611a77937f65412581168e88a1e60c6459d7f44ae83ad0832e670826c05a4e2476b57af75260405180611be58787836104f0565b0390a2603c8214611c33575b8060005260006020526001600160401b036040600020541660005260026020526040600020906000526020526040600020906000526020526040600020611c76565b807f52d7d861f09ab3d26239d492e8968629f95e9e318cf0b73bfddc441522a15fd26020611c6086611f81565b6040516001600160a01b039091168152a2611bf1565b91909182516001600160401b03811161079157611c978161166d84546115c2565b6020601f8211600114611cd35781906116a5939495600092611cc85750508160011b916000199060031b1c19161790565b015190503880611690565b601f19821690611ce884600052602060002090565b9160005b818110611d2357509583600195969710611d0a57505050811b019055565b015160001960f88460031b161c191690553880806116e0565b9192602060018192868b015181550194019201611cec565b908160209103126101d357516104ed81610c42565b6040513d6000823e3d90fd5b337f00000000000000000000000000000000000000000000000000000000000000006001600160a01b0316148015611f4f575b8015611f32575b611f2c576040516302571be360e01b8152600481018290526020816024816001600160a01b037f0000000000000000000000000000000000000000000000000000000000000000165afa908115611f0857600091611f0d575b506001600160a01b037f000000000000000000000000000000000000000000000000000000000000000081169082168114611ea1575b506001600160a01b0381163314918215611e76575b8215611e4557505090565b6104ed925090610cc3611e6f92611834339360018060a01b0316600052600a602052604060002090565b5460ff1690565b9150611e9b611e6f33610cc38460018060a01b03166000526009602052604060002090565b91611e3a565b6040516331a9108f60e11b8152600481018490529150602090829060249082905afa908115611f0857600091611ed9575b5038611e25565b611efb915060203d602011611f01575b611ef38183610b8b565b810190611d3b565b38611ed2565b503d611ee9565b611d50565b611f26915060203d602011611f0157611ef38183610b8b565b38611def565b50600190565b50600854611f48906001600160a01b0316611883565b3314611d96565b50337f00000000000000000000000000000000000000000000000000000000000000006001600160a01b031614611d8f565b60148151036101d3576020015160601c90565b6001600160401b0381116107915760051b60200190565b91908110156117e45760051b81013590601e19813603018212156101d35701908135916001600160401b0383116101d35760200182360381136101d3579190565b906024116101d35760040190602090565b35906020811061200b575090565b6000199060200360031b1b1690565b1561202157565b60405162461bcd60e51b815260206004820152603460248201527f6d756c746963616c6c3a20416c6c207265636f726473206d7573742068617665604482015273040c240dac2e8c6d0d2dcce40dcc2dacad0c2e6d60631b6064820152608490fd5b80518210156117e45760209160051b01019056fea2646970667358221220470ee9b88dc02b3ec3141e080ee2bc438e02f91944b9b293141390513f5b00b164736f6c634300081a0033",
  "linkReferences": {},
  "deployedLinkReferences": {}
}