{
  "_format": "hh-sol-artifact-1",
  "contractName": "SecondLevelInteractor",
  "sourceName": "contracts/custom/SecondLevelInteractor.sol",
  "abi": [
    {
      "inputs": [
        {
          "internalType": "address",
          "name": "_globalRegistrarController",
          "type": "address"
        },
        {
          "internalType": "address",
          "name": "_nameWrapper",
          "type": "address"
        },
        {
          "internalType": "address",
          "name": "_arnaconResolver",
          "type": "address"
        },
        {
          "internalType": "address",
          "name": "_publicResolver",
          "type": "address"
        },
        {
          "internalType": "address",
          "name": "_signatureVerifier",
          "type": "address"
        },
        {
          "internalType": "address",
          "name": "_provisionRegistry",
          "type": "address"
        }
      ],
      "stateMutability": "nonpayable",
      "type": "constructor"
    },
    {
      "inputs": [],
      "name": "AccessControlBadConfirmation",
      "type": "error"
    },
    {
      "inputs": [
        {
          "internalType": "address",
          "name": "account",
          "type": "address"
        },
        {
          "internalType": "bytes32",
          "name": "neededRole",
          "type": "bytes32"
        }
      ],
      "name": "AccessControlUnauthorizedAccount",
      "type": "error"
    },
    {
      "inputs": [
        {
          "internalType": "address",
          "name": "owner",
          "type": "address"
        }
      ],
      "name": "OwnableInvalidOwner",
      "type": "error"
    },
    {
      "inputs": [
        {
          "internalType": "address",
          "name": "account",
          "type": "address"
        }
      ],
      "name": "OwnableUnauthorizedAccount",
      "type": "error"
    },
    {
      "inputs": [
        {
          "internalType": "uint256",
          "name": "value",
          "type": "uint256"
        },
        {
          "internalType": "uint256",
          "name": "length",
          "type": "uint256"
        }
      ],
      "name": "StringsInsufficientHexLength",
      "type": "error"
    },
    {
      "anonymous": false,
      "inputs": [
        {
          "indexed": true,
          "internalType": "address",
          "name": "previousOwner",
          "type": "address"
        },
        {
          "indexed": true,
          "internalType": "address",
          "name": "newOwner",
          "type": "address"
        }
      ],
      "name": "OwnershipTransferred",
      "type": "event"
    },
    {
      "anonymous": false,
      "inputs": [
        {
          "indexed": true,
          "internalType": "bytes32",
          "name": "role",
          "type": "bytes32"
        },
        {
          "indexed": true,
          "internalType": "bytes32",
          "name": "previousAdminRole",
          "type": "bytes32"
        },
        {
          "indexed": true,
          "internalType": "bytes32",
          "name": "newAdminRole",
          "type": "bytes32"
        }
      ],
      "name": "RoleAdminChanged",
      "type": "event"
    },
    {
      "anonymous": false,
      "inputs": [
        {
          "indexed": true,
          "internalType": "bytes32",
          "name": "role",
          "type": "bytes32"
        },
        {
          "indexed": true,
          "internalType": "address",
          "name": "account",
          "type": "address"
        },
        {
          "indexed": true,
          "internalType": "address",
          "name": "sender",
          "type": "address"
        }
      ],
      "name": "RoleGranted",
      "type": "event"
    },
    {
      "anonymous": false,
      "inputs": [
        {
          "indexed": true,
          "internalType": "bytes32",
          "name": "role",
          "type": "bytes32"
        },
        {
          "indexed": true,
          "internalType": "address",
          "name": "account",
          "type": "address"
        },
        {
          "indexed": true,
          "internalType": "address",
          "name": "sender",
          "type": "address"
        }
      ],
      "name": "RoleRevoked",
      "type": "event"
    },
    {
      "stateMutability": "payable",
      "type": "fallback"
    },
    {
      "inputs": [],
      "name": "CONTROLLER_ROLE",
      "outputs": [
        {
          "internalType": "bytes32",
          "name": "",
          "type": "bytes32"
        }
      ],
      "stateMutability": "view",
      "type": "function"
    },
    {
      "inputs": [],
      "name": "DEFAULT_ADMIN_ROLE",
      "outputs": [
        {
          "internalType": "bytes32",
          "name": "",
          "type": "bytes32"
        }
      ],
      "stateMutability": "view",
      "type": "function"
    },
    {
      "inputs": [],
      "name": "GLOBAL_NODE",
      "outputs": [
        {
          "internalType": "bytes32",
          "name": "",
          "type": "bytes32"
        }
      ],
      "stateMutability": "view",
      "type": "function"
    },
    {
      "inputs": [],
      "name": "PublicResolver",
      "outputs": [
        {
          "internalType": "address",
          "name": "",
          "type": "address"
        }
      ],
      "stateMutability": "view",
      "type": "function"
    },
    {
      "inputs": [
        {
          "internalType": "string",
          "name": "",
          "type": "string"
        }
      ],
      "name": "ServiceProviderNodes",
      "outputs": [
        {
          "internalType": "bytes32",
          "name": "",
          "type": "bytes32"
        }
      ],
      "stateMutability": "view",
      "type": "function"
    },
    {
      "inputs": [
        {
          "internalType": "string",
          "name": "name",
          "type": "string"
        }
      ],
      "name": "add2LDNode",
      "outputs": [],
      "stateMutability": "nonpayable",
      "type": "function"
    },
    {
      "inputs": [
        {
          "internalType": "string",
          "name": "name",
          "type": "string"
        },
        {
          "internalType": "bytes32",
          "name": "node",
          "type": "bytes32"
        }
      ],
      "name": "addNode",
      "outputs": [],
      "stateMutability": "nonpayable",
      "type": "function"
    },
    {
      "inputs": [
        {
          "internalType": "string",
          "name": "name",
          "type": "string"
        }
      ],
      "name": "addRegisteredName",
      "outputs": [],
      "stateMutability": "nonpayable",
      "type": "function"
    },
    {
      "inputs": [
        {
          "internalType": "address",
          "name": "_address",
          "type": "address"
        }
      ],
      "name": "addressToString",
      "outputs": [
        {
          "internalType": "string",
          "name": "",
          "type": "string"
        }
      ],
      "stateMutability": "pure",
      "type": "function"
    },
    {
      "inputs": [],
      "name": "arnaconResolver",
      "outputs": [
        {
          "internalType": "contract IArnaconResolver",
          "name": "",
          "type": "address"
        }
      ],
      "stateMutability": "view",
      "type": "function"
    },
    {
      "inputs": [
        {
          "internalType": "string",
          "name": "key",
          "type": "string"
        },
        {
          "internalType": "string",
          "name": "tokenURI",
          "type": "string"
        },
        {
          "internalType": "string",
          "name": "name",
          "type": "string"
        },
        {
          "internalType": "string",
          "name": "identifier",
          "type": "string"
        },
        {
          "internalType": "bool",
          "name": "_setProvisionRegistry",
          "type": "bool"
        }
      ],
      "name": "createProvisionAndUpdateResolver",
      "outputs": [
        {
          "internalType": "uint256",
          "name": "",
          "type": "uint256"
        }
      ],
      "stateMutability": "payable",
      "type": "function"
    },
    {
      "inputs": [
        {
          "internalType": "address",
          "name": "target",
          "type": "address"
        },
        {
          "internalType": "bytes",
          "name": "data",
          "type": "bytes"
        }
      ],
      "name": "executeTransaction",
      "outputs": [
        {
          "internalType": "bytes",
          "name": "",
          "type": "bytes"
        }
      ],
      "stateMutability": "payable",
      "type": "function"
    },
    {
      "inputs": [
        {
          "components": [
            {
              "internalType": "address",
              "name": "target",
              "type": "address"
            },
            {
              "internalType": "bytes",
              "name": "data",
              "type": "bytes"
            },
            {
              "internalType": "uint256",
              "name": "value",
              "type": "uint256"
            }
          ],
          "internalType": "struct SecondLevelInteractor.Transaction[]",
          "name": "transactions",
          "type": "tuple[]"
        }
      ],
      "name": "executeTransactions",
      "outputs": [
        {
          "internalType": "bytes[]",
          "name": "",
          "type": "bytes[]"
        }
      ],
      "stateMutability": "payable",
      "type": "function"
    },
    {
      "inputs": [
        {
          "internalType": "string",
          "name": "name",
          "type": "string"
        }
      ],
      "name": "getNode",
      "outputs": [
        {
          "internalType": "bytes32",
          "name": "",
          "type": "bytes32"
        }
      ],
      "stateMutability": "view",
      "type": "function"
    },
    {
      "inputs": [],
      "name": "getRegisteredNames",
      "outputs": [
        {
          "internalType": "string[]",
          "name": "",
          "type": "string[]"
        }
      ],
      "stateMutability": "view",
      "type": "function"
    },
    {
      "inputs": [
        {
          "internalType": "bytes32",
          "name": "role",
          "type": "bytes32"
        }
      ],
      "name": "getRoleAdmin",
      "outputs": [
        {
          "internalType": "bytes32",
          "name": "",
          "type": "bytes32"
        }
      ],
      "stateMutability": "view",
      "type": "function"
    },
    {
      "inputs": [],
      "name": "globalRegistrarController",
      "outputs": [
        {
          "internalType": "address",
          "name": "",
          "type": "address"
        }
      ],
      "stateMutability": "view",
      "type": "function"
    },
    {
      "inputs": [
        {
          "internalType": "bytes32",
          "name": "role",
          "type": "bytes32"
        },
        {
          "internalType": "address",
          "name": "account",
          "type": "address"
        }
      ],
      "name": "grantRole",
      "outputs": [],
      "stateMutability": "nonpayable",
      "type": "function"
    },
    {
      "inputs": [
        {
          "internalType": "bytes32",
          "name": "role",
          "type": "bytes32"
        },
        {
          "internalType": "address",
          "name": "account",
          "type": "address"
        }
      ],
      "name": "hasRole",
      "outputs": [
        {
          "internalType": "bool",
          "name": "",
          "type": "bool"
        }
      ],
      "stateMutability": "view",
      "type": "function"
    },
    {
      "inputs": [
        {
          "internalType": "address",
          "name": "newController",
          "type": "address"
        }
      ],
      "name": "makeController",
      "outputs": [],
      "stateMutability": "nonpayable",
      "type": "function"
    },
    {
      "inputs": [],
      "name": "nameWrapper",
      "outputs": [
        {
          "internalType": "contract INameWrapper",
          "name": "",
          "type": "address"
        }
      ],
      "stateMutability": "view",
      "type": "function"
    },
    {
      "inputs": [
        {
          "internalType": "address",
          "name": "operator",
          "type": "address"
        },
        {
          "internalType": "address",
          "name": "from",
          "type": "address"
        },
        {
          "internalType": "uint256",
          "name": "tokenId",
          "type": "uint256"
        },
        {
          "internalType": "bytes",
          "name": "data",
          "type": "bytes"
        }
      ],
      "name": "onERC721Received",
      "outputs": [
        {
          "internalType": "bytes4",
          "name": "",
          "type": "bytes4"
        }
      ],
      "stateMutability": "nonpayable",
      "type": "function"
    },
    {
      "inputs": [],
      "name": "owner",
      "outputs": [
        {
          "internalType": "address",
          "name": "",
          "type": "address"
        }
      ],
      "stateMutability": "view",
      "type": "function"
    },
    {
      "inputs": [],
      "name": "price",
      "outputs": [
        {
          "internalType": "uint256",
          "name": "",
          "type": "uint256"
        }
      ],
      "stateMutability": "view",
      "type": "function"
    },
    {
      "inputs": [],
      "name": "provisionRegistry",
      "outputs": [
        {
          "internalType": "contract IProvisionRegistry",
          "name": "",
          "type": "address"
        }
      ],
      "stateMutability": "view",
      "type": "function"
    },
    {
      "inputs": [
        {
          "internalType": "string",
          "name": "name",
          "type": "string"
        },
        {
          "internalType": "string",
          "name": "label",
          "type": "string"
        }
      ],
      "name": "purchaseProduct",
      "outputs": [],
      "stateMutability": "nonpayable",
      "type": "function"
    },
    {
      "inputs": [
        {
          "internalType": "string",
          "name": "name",
          "type": "string"
        }
      ],
      "name": "regainOwnership",
      "outputs": [],
      "stateMutability": "nonpayable",
      "type": "function"
    },
    {
      "inputs": [],
      "name": "regainOwnershipOfAllNodes",
      "outputs": [],
      "stateMutability": "nonpayable",
      "type": "function"
    },
    {
      "inputs": [
        {
          "internalType": "address",
          "name": "owner",
          "type": "address"
        },
        {
          "internalType": "string",
          "name": "label",
          "type": "string"
        },
        {
          "internalType": "string",
          "name": "name",
          "type": "string"
        }
      ],
      "name": "registerSubnode",
      "outputs": [],
      "stateMutability": "nonpayable",
      "type": "function"
    },
    {
      "inputs": [
        {
          "internalType": "address",
          "name": "owner",
          "type": "address"
        },
        {
          "internalType": "string",
          "name": "label",
          "type": "string"
        },
        {
          "internalType": "string",
          "name": "name",
          "type": "string"
        },
        {
          "internalType": "uint64",
          "name": "expiry",
          "type": "uint64"
        }
      ],
      "name": "registerSubnodeRecord",
      "outputs": [],
      "stateMutability": "nonpayable",
      "type": "function"
    },
    {
      "inputs": [
        {
          "internalType": "uint256",
          "name": "",
          "type": "uint256"
        }
      ],
      "name": "registeredNames",
      "outputs": [
        {
          "internalType": "string",
          "name": "",
          "type": "string"
        }
      ],
      "stateMutability": "view",
      "type": "function"
    },
    {
      "inputs": [
        {
          "internalType": "address",
          "name": "controller",
          "type": "address"
        }
      ],
      "name": "removeController",
      "outputs": [],
      "stateMutability": "nonpayable",
      "type": "function"
    },
    {
      "inputs": [
        {
          "internalType": "string",
          "name": "name",
          "type": "string"
        },
        {
          "internalType": "uint256",
          "name": "index",
          "type": "uint256"
        }
      ],
      "name": "removeNode",
      "outputs": [],
      "stateMutability": "nonpayable",
      "type": "function"
    },
    {
      "inputs": [
        {
          "internalType": "string",
          "name": "name",
          "type": "string"
        },
        {
          "internalType": "string",
          "name": "label",
          "type": "string"
        }
      ],
      "name": "renew",
      "outputs": [],
      "stateMutability": "nonpayable",
      "type": "function"
    },
    {
      "inputs": [],
      "name": "renounceOwnership",
      "outputs": [],
      "stateMutability": "nonpayable",
      "type": "function"
    },
    {
      "inputs": [
        {
          "internalType": "bytes32",
          "name": "role",
          "type": "bytes32"
        },
        {
          "internalType": "address",
          "name": "callerConfirmation",
          "type": "address"
        }
      ],
      "name": "renounceRole",
      "outputs": [],
      "stateMutability": "nonpayable",
      "type": "function"
    },
    {
      "inputs": [
        {
          "internalType": "bytes32",
          "name": "role",
          "type": "bytes32"
        },
        {
          "internalType": "address",
          "name": "account",
          "type": "address"
        }
      ],
      "name": "revokeRole",
      "outputs": [],
      "stateMutability": "nonpayable",
      "type": "function"
    },
    {
      "inputs": [],
      "name": "secondLevelController",
      "outputs": [
        {
          "internalType": "contract I2LDController",
          "name": "",
          "type": "address"
        }
      ],
      "stateMutability": "view",
      "type": "function"
    },
    {
      "inputs": [],
      "name": "serviceProvider",
      "outputs": [
        {
          "internalType": "address",
          "name": "",
          "type": "address"
        }
      ],
      "stateMutability": "view",
      "type": "function"
    },
    {
      "inputs": [
        {
          "internalType": "address",
          "name": "_arnaconResolver",
          "type": "address"
        }
      ],
      "name": "setArnaconResolver",
      "outputs": [],
      "stateMutability": "nonpayable",
      "type": "function"
    },
    {
      "inputs": [
        {
          "internalType": "string",
          "name": "name",
          "type": "string"
        },
        {
          "internalType": "string",
          "name": "label",
          "type": "string"
        },
        {
          "internalType": "uint64",
          "name": "expiry",
          "type": "uint64"
        }
      ],
      "name": "setExpiry",
      "outputs": [],
      "stateMutability": "nonpayable",
      "type": "function"
    },
    {
      "inputs": [
        {
          "internalType": "address",
          "name": "_provisionRegistry",
          "type": "address"
        }
      ],
      "name": "setProvisionRegistry",
      "outputs": [],
      "stateMutability": "nonpayable",
      "type": "function"
    },
    {
      "inputs": [
        {
          "internalType": "address",
          "name": "_publicResolver",
          "type": "address"
        }
      ],
      "name": "setPublicResolver",
      "outputs": [],
      "stateMutability": "nonpayable",
      "type": "function"
    },
    {
      "inputs": [
        {
          "internalType": "address",
          "name": "_secondLevelController",
          "type": "address"
        }
      ],
      "name": "setSecondLevelController",
      "outputs": [],
      "stateMutability": "nonpayable",
      "type": "function"
    },
    {
      "inputs": [
        {
          "internalType": "address",
          "name": "_serviceProvider",
          "type": "address"
        }
      ],
      "name": "setServiceProvider",
      "outputs": [],
      "stateMutability": "nonpayable",
      "type": "function"
    },
    {
      "inputs": [
        {
          "internalType": "address",
          "name": "_signatureVerifier",
          "type": "address"
        }
      ],
      "name": "setSignatureVerifier",
      "outputs": [],
      "stateMutability": "nonpayable",
      "type": "function"
    },
    {
      "inputs": [
        {
          "internalType": "string",
          "name": "name",
          "type": "string"
        },
        {
          "internalType": "string",
          "name": "key",
          "type": "string"
        },
        {
          "internalType": "string",
          "name": "value",
          "type": "string"
        }
      ],
      "name": "setText",
      "outputs": [],
      "stateMutability": "nonpayable",
      "type": "function"
    },
    {
      "inputs": [],
      "name": "signatureVerifier",
      "outputs": [
        {
          "internalType": "contract ISignatureVerifier",
          "name": "",
          "type": "address"
        }
      ],
      "stateMutability": "view",
      "type": "function"
    },
    {
      "inputs": [
        {
          "internalType": "bytes4",
          "name": "interfaceId",
          "type": "bytes4"
        }
      ],
      "name": "supportsInterface",
      "outputs": [
        {
          "internalType": "bool",
          "name": "",
          "type": "bool"
        }
      ],
      "stateMutability": "view",
      "type": "function"
    },
    {
      "inputs": [
        {
          "internalType": "address",
          "name": "to",
          "type": "address"
        }
      ],
      "name": "transferAllNodes",
      "outputs": [],
      "stateMutability": "nonpayable",
      "type": "function"
    },
    {
      "inputs": [
        {
          "internalType": "string",
          "name": "name",
          "type": "string"
        },
        {
          "internalType": "address",
          "name": "to",
          "type": "address"
        }
      ],
      "name": "transferNode",
      "outputs": [],
      "stateMutability": "nonpayable",
      "type": "function"
    },
    {
      "inputs": [
        {
          "internalType": "address",
          "name": "newOwner",
          "type": "address"
        }
      ],
      "name": "transferOwnership",
      "outputs": [],
      "stateMutability": "nonpayable",
      "type": "function"
    },
    {
      "inputs": [
        {
          "internalType": "address",
          "name": "signer",
          "type": "address"
        },
        {
          "internalType": "address",
          "name": "receiver",
          "type": "address"
        },
        {
          "internalType": "string",
          "name": "name",
          "type": "string"
        },
        {
          "internalType": "string",
          "name": "label",
          "type": "string"
        },
        {
          "internalType": "uint256",
          "name": "timestamp",
          "type": "uint256"
        },
        {
          "internalType": "bytes",
          "name": "signature",
          "type": "bytes"
        }
      ],
      "name": "verifyProductAndActivate",
      "outputs": [],
      "stateMutability": "nonpayable",
      "type": "function"
    },
    {
      "stateMutability": "payable",
      "type": "receive"
    }
  ],
  "bytecode": "0x6080346101aa57601f61326138819003918201601f19168301916001600160401b038311848410176101af5780849260c0946040528339810103126101aa57610047816101c5565b610053602083016101c5565b61005f604084016101c5565b9261006c606082016101c5565b9361008560a061007e608085016101c5565b93016101c5565b9333156101945760018054336001600160a01b0319821681179092556001600160a01b03167f8be0079c531659141344cd1fd0a4f28419497f9722a3daafe3b4186f6b6457e0600080a37f792f878ece97d22e612f52be21b22b7cd412ee91085e091bf8237322fc3fe4e6600b55600380546001600160a01b03199081166001600160a01b039384161790915560058054821633908117909155600680548316948416949094179093556008805482169483169490941790935560098054841694821694909417909355600a805483169484169490941790935560078054909116939091169290921790915561017a906101d9565b5061018433610255565b50604051612f1390816102ee8239f35b631e4fbdf760e01b600052600060045260246000fd5b600080fd5b634e487b7160e01b600052604160045260246000fd5b51906001600160a01b03821682036101aa57565b6001600160a01b0381166000908152600080516020613241833981519152602052604090205460ff1661024f576001600160a01b0316600081815260008051602061324183398151915260205260408120805460ff191660011790553391906000805160206132018339815191528180a4600190565b50600090565b6001600160a01b0381166000908152600080516020613221833981519152602052604090205460ff1661024f576001600160a01b0316600081815260008051602061322183398151915260205260408120805460ff191660011790553391907f7b765e0e932d348852a6f810bfa1ab891e259123f02db8cdcde614c570223357906000805160206132018339815191529080a460019056fe608080604052600436101561001a575b50361561001857005b005b600090813560e01c90816301ffc9a7146122715750806305378f4f14612161578063092c5b3b14612138578063150b7a02146120e15780631fa4c486146120b8578063248a9ca31461208257806326c2577a14611fe15780632f2ff15d14611fa0578063362add7614611f3557806336568abe14611ef057806337c6e93214611ea1578063488c12d014611dc75780634e8f6897146119cd5780635687cddd146119a45780635e57966d1461197f57806361fa936814611956578063678483ce146118b25780636ca0f8141461184e578063715018a6146117f157806378aabb43146116965780637bd4c0eb1461160b578063813684a2146115a15780638154a48e146113fd57806385134b64146113d4578063883578161461136a5780638d69e95e146113415780638da5cb5b1461131857806391a797f11461125e57806391d14854146112135780639428522a1461114c578063957f992d146111a95780639ae59f231461114c5780639c2fc2a4146110bb578063a035b1fe1461109d578063a0622f4e1461105a578063a1deeaa414611031578063a217fddf14611015578063a71deec214610d40578063a8e5fbc014610d17578063b3adafa114610cad578063b660646214610bca578063b9978dad14610bac578063d547741f14610b6b578063da6eae4014610aa8578063dd85b1dd14610a3d578063e08a6605146109d3578063e795ff9a14610719578063eae9ff00146106ad578063f2fde38b14610624578063f6a74ed7146105af578063f9a52d33146104f7578063fddf2838146102955763fde919f60361000f57346102925780600319360112610292576008546040516001600160a01b039091168152602090f35b80fd5b5034610292576040366003190112610292576004356001600160401b0381116104f3576102c690369060040161234f565b600080516020612ebe833981519152825260208281526040808420336000908152925290205460243591906102fd9060ff1661258d565b610306826123c6565b506040518154918186610318856123f7565b9283835260208301956001811690816000146104d45750600114610493575b50610344925003826122c6565b51902091815192602083019384200361045d57600c54600019810190811161044957610372610379916123c6565b50916123c6565b610421579061038791612868565b600c548015610435576000190161039d816123c6565b61042157926103d39260209286866103b68298546123f7565b806103e1575b505050600c556040519384928392519283916124d5565b8101600d8152030190205580f35b601f81116001146103f75750555b8538806103bc565b81835286832061041291601f0160051c81019060010161280c565b808252818681209155556103ef565b634e487b7160e01b85526004859052602485fd5b634e487b7160e01b84526031600452602484fd5b634e487b7160e01b85526011600452602485fd5b60405162461bcd60e51b815260206004820152600e60248201526d13985b59481b9bdd08199bdd5b9960921b6044820152606490fd5b88525060208720909187915b8183106104b85750509060206103449282010138610337565b602091935080600191548385880101520191019091839261049f565b60ff191687525061034493151560051b83016020019150389050610337565b5080fd5b50346102925760803660031901126102925761051161236d565b6024356001600160401b0381116105ab5761053090369060040161234f565b6044356001600160401b0381116105a75761054f90369060040161234f565b90606435916001600160401b03831683036105a357600080516020612ebe83398151915285526020858152604080872033600090815292529020546105a0949061059b9060ff1661258d565b612cea565b80f35b8480fd5b8380fd5b8280fd5b5034610292576020366003190112610292576106206105cc61236d565b6105d461294b565b600080516020612ebe83398151915260009081526020527fd4b1ef424fcb83dce82b8e6790fbd9bbcd76978bd34427cec18daa7ab21675445461061b90612974565b612974565b612bd2565b5080f35b50346102925760203660031901126102925761063e61236d565b61064661294b565b6001600160a01b0316801561069957600180546001600160a01b0319811683179091556001600160a01b03167f8be0079c531659141344cd1fd0a4f28419497f9722a3daafe3b4186f6b6457e08380a380f35b631e4fbdf760e01b82526004829052602482fd5b5034610292576020366003190112610292576106206106ca61236d565b6106d261294b565b600080516020612ebe83398151915260009081526020527fd4b1ef424fcb83dce82b8e6790fbd9bbcd76978bd34427cec18daa7ab21675445461071490612974565b6129af565b50346102925761072836612543565b600080516020612ebe833981519152835260208381526040808520336000908152925290205491929161075d9060ff1661258d565b604051928051936020818184019661077681838a6124d5565b8101600d815203019020548251602084012060405190602082019283526040820152604081526107a76060826122c6565b5190206006546040516329410b0f60e01b815260048101839052916001600160a01b0390911690602083602481855afa9283156109c8578693610993575b5060209060246040518094819363710e3c7360e01b835260048301525afa90811561095157859161095c575b50600954604051630178fe3f60e01b81526004810193909352606090839060249082906001600160a01b03165afa91821561095157859261091d575b5062015180810290808204620151801490151715610449576001600160401b038091169116016001600160401b038111610909576108a56020859660018060a01b0360025416946040519384928392519283916124d5565b8101600d8152030190205491803b156105a3576108dc93858094604051968795869485936320a808ff60e01b855260048501612604565b03925af180156108fe576108ed5750f35b816108f7916122c6565b6102925780f35b6040513d84823e3d90fd5b634e487b7160e01b84526011600452602484fd5b61094091925060603d60601161094a575b61093881836122c6565b810190612631565b915050903861084d565b503d61092e565b6040513d87823e3d90fd5b90506020813d60201161098b575b81610977602093836122c6565b81010312610986575138610811565b600080fd5b3d915061096a565b9092506020813d6020116109c0575b816109af602093836122c6565b8101031261098657519160206107e5565b3d91506109a2565b6040513d88823e3d90fd5b5034610292576020366003190112610292576109ed61236d565b6005546001600160a01b031633148015610a29575b610a0b9061275d565b60018060a01b03166001600160601b0360a01b600854161760085580f35b506003546001600160a01b03163314610a02565b503461029257602036600319011261029257610a5761236d565b60055490336001600160a01b038316148015610a94575b610a779061275d565b6001600160a01b03166001600160a01b0319919091161760055580f35b506003546001600160a01b03163314610a6e565b503461029257602036600319011261029257610ac261236d565b610aca61294b565b6001600160a01b0316815b600c54811015610b675782610af2610aec836123c6565b50612431565b610afa61294b565b6002546001600160a01b031690610b109061251d565b54813b156105ab57829160448392604051948593849263b2e3cb3d60e01b845260048401528960248401525af180156108fe57610b52575b5050600101610ad5565b81610b5c916122c6565b6105ab578238610b48565b8280f35b503461029257604036600319011261029257610620600435610b8b612383565b90610ba761061682600052600060205260016040600020015490565b612c68565b50346102925780600319360112610292576020600b54604051908152f35b5034610292578060031936011261029257600c54610be7816127bf565b610bf460405191826122c6565b818152600c83526020810191837fdf6966c971051c3d54ec59162606531493a51404a002842f56009d7e5cf4a8c7845b838310610c9057868587604051928392602084019060208552518091526040840160408260051b8601019392905b828210610c6157505050500390f35b91936001919395506020610c808192603f198a820301865288516124f8565b9601920192018594939192610c52565b600160208192610c9f85612431565b815201920192019190610c24565b503461029257602036600319011261029257610cc761236d565b6005546001600160a01b031633148015610d03575b610ce59061275d565b60018060a01b03166001600160601b0360a01b600a541617600a5580f35b506003546001600160a01b03163314610cdc565b50346102925780600319360112610292576009546040516001600160a01b039091168152602090f35b5060a0366003190112610292576004356001600160401b0381116104f357610d6c90369060040161234f565b6024356001600160401b0381116105ab57610d8b90369060040161234f565b90826044356001600160401b0381116104f357610dac90369060040161234f565b916064356001600160401b0381116105ab57610dcc90369060040161234f565b9260843580151581036105a757600080516020612ebe8339815191528452602084815260408086203360009081529083522054610e539790610e109060ff1661258d565b60018060a01b03600a541660405180809a819463157d0a4360e11b835260406004840152610e41604484018b6124f8565b838103600319016024850152906124f8565b039134905af1958615610fcf578496610fde575b50610f00575b610e91602060018060a01b03600254169281604051938285809451938492016124d5565b8101600d8152030190205493813b156105a75783610ec6956040519687958694859363043c4ea360e21b8552600485016125d9565b03925af18015610ef557610ee0575b602082604051908152f35b610eeb8380926122c6565b6104f35781610ed5565b6040513d85823e3d90fd5b60018060a01b03600254166040516020818451610f2081838589016124d5565b600d9082019081520301902054600a54610f42906001600160a01b031661267a565b823b15610fda57610fa19286928360405180968195829463043c4ea360e21b8452600484015260606024840152601160648401527070726f766973696f6e526567697374727960781b608484015260a0604484015260a48301906124f8565b03925af1908115610fcf578491610fba575b5050610e6d565b81610fc4916122c6565b6105ab578238610fb3565b6040513d86823e3d90fd5b8580fd5b935094506020833d60201161100d575b81610ffb602093836122c6565b81010312610986578592519438610e67565b3d9150610fee565b5034610292578060031936011261029257602090604051908152f35b50346102925780600319360112610292576006546040516001600160a01b039091168152602090f35b50346102925761106936612543565b50506005546001600160a01b031633148015611089575b6105a09061275d565b506003546001600160a01b03163314611080565b50346102925780600319360112610292576020600454604051908152f35b5034610292576040366003190112610292576004356001600160401b0381116104f3576110ef6105a091369060040161234f565b6005546001600160a01b031633148015611138575b61110d9061275d565b60405181516111208183602086016124d5565b810190600d8252602081602435930301902055612ad8565b506003546001600160a01b03163314611104565b503461029257602036600319011261029257600435906001600160401b03821161029257602061119681611183366004870161234f565b81604051938285809451938492016124d5565b8101600d81520301902054604051908152f35b5034610292576020366003190112610292576111c361236d565b6005546001600160a01b0316331480156111ff575b6111e19061275d565b60018060a01b03166001600160601b0360a01b600754161760075580f35b506003546001600160a01b031633146111d8565b503461029257604036600319011261029257604061122f612383565b91600435815280602052209060018060a01b0316600052602052602060ff604060002054166040519015158152f35b5034610292576020366003190112610292576004356001600160401b0381116104f3576112926105a091369060040161234f565b6005546001600160a01b031633148015611304575b6112b09061275d565b600b546112f46020835192818501938420604051908382019283526040820152604081526112df6060826122c6565b519020926040518093819287519283916124d5565b8101600d81520301902055612ad8565b506003546001600160a01b031633146112a7565b50346102925780600319360112610292576001546040516001600160a01b039091168152602090f35b50346102925780600319360112610292576005546040516001600160a01b039091168152602090f35b50346102925760203660031901126102925761138461236d565b6005546001600160a01b0316331480156113c0575b6113a29061275d565b60018060a01b03166001600160601b0360a01b600654161760065580f35b506003546001600160a01b03163314611399565b5034610292578060031936011261029257600a546040516001600160a01b039091168152602090f35b506020366003190112610292576004356001600160401b0381116104f357366023820112156104f3578060040135906001600160401b0382116105ab576024810190602436918460051b0101116105ab5761145661294b565b61145f826127bf565b9161146d60405193846122c6565b808352601f1961147c826127bf565b01845b818110611590575050835b8181106114f85783856040519182916020830160208452825180915260408401602060408360051b870101940192905b8282106114c957505050500390f35b919360019193955060206114e88192603f198a820301865288516124f8565b96019201920185949391926114ba565b6115038183856127d6565b35906001600160a01b0382168203610fda576115208184866127d6565b602081013590601e198136030182121561158c5701918235926001600160401b03841161158c5760200190833603821361158c5760019361157092604061156886898b6127d6565b013592612dad565b61157a82876127f8565b5261158581866127f8565b500161148a565b8780fd5b80606060208093880101520161147f565b5034610292576020366003190112610292576115bb61236d565b6005546001600160a01b0316331480156115f7575b6115d99061275d565b60018060a01b03166001600160601b0360a01b600254161760025580f35b506003546001600160a01b031633146115d0565b503461029257602036600319011261029257806004356001600160401b0381116116935761163d90369060040161234f565b61164561294b565b6002546001600160a01b03169061165b9061251d565b54813b1561168f578291602483926040519485938492631b1bbf1b60e11b845260048401525af180156108fe576108ed5750f35b5050fd5b50fd5b5034610292576060366003190112610292576116b061236d565b6024356001600160401b0381116105ab576116cf90369060040161234f565b906044356001600160401b0381116105a7576116ef90369060040161234f565b91600080516020612ebe8339815191528452836020526040842060018060a01b03331660005260205261172960ff6040600020541661258d565b8051156117bb578392611756602060018060a01b03600254169281604051938285809451938492016124d5565b8101600d8152030190205490803b156105a35784928361179a9360405196879586948593630475123560e51b855260048501526060602485015260648401906124f8565b6001600160a01b03909116604483015203925af180156108fe576108ed5750f35b60405162461bcd60e51b815260206004820152600e60248201526d4c6162656c20697320656d70747960901b6044820152606490fd5b503461029257806003193601126102925761180a61294b565b600180546001600160a01b0319811690915581906001600160a01b03167f8be0079c531659141344cd1fd0a4f28419497f9722a3daafe3b4186f6b6457e08280a380f35b5060403660031901126102925761186361236d565b90602435906001600160401b038211610292576118ae61189a8461188a3660048701612399565b9061189361294b565b3492612dad565b6040519182916020835260208301906124f8565b0390f35b503461029257604036600319011261029257806004356001600160401b038111611693576118e490369060040161234f565b6118ec612383565b6118f461294b565b6002546001600160a01b03169161190a9061251d565b5490823b156119515760405163b2e3cb3d60e01b815260048101929092526001600160a01b031660248201529082908290604490829084905af180156108fe576108ed5750f35b505050fd5b50346102925780600319360112610292576003546040516001600160a01b039091168152602090f35b5034610292576020366003190112610292576118ae61189a61199f61236d565b61267a565b50346102925780600319360112610292576002546040516001600160a01b039091168152602090f35b50346102925760c0366003190112610292576119e761236d565b6119ef612383565b906044356001600160401b0381116105a757611a0f90369060040161234f565b6064356001600160401b0381116105a357611a2e90369060040161234f565b9060a4356001600160401b038111610fda5736602382011215610fda57611a5f903690602481600401359101612318565b92611a698261251d565b54835160208501206040519060208201928352604082015260408152611a906060826122c6565b5190209360018060a01b036006541690604051926329410b0f60e01b8452866004850152602084602481865afa938415611cd9578994611d91575b5060085460405163fca1526560e01b81526001600160a01b03928316600482015289831660248201526044810186905260848035606483015260a090820152926020928492169082908190611b249060a48301906124f8565b03915afa908115611cac578891611d56575b5015611d1857604051630da43df760e31b81526004810186905294602086602481855afa958615611cac578896611ce4575b50600954604051630178fe3f60e01b81526004810185905290606090829060249082906001600160a01b03165afa8015611cd95784918a91611cb7575b509603611bb9575b5050506105a093612cea565b9091945060405163710e3c7360e01b8152816004820152602081602481865afa908115611cac578891611c7a575b5062015180810290808204620151801490151715611c66574201804211611c6657906001600160401b038893921695823b156105a757604484928360405195869485936346327e2760e11b8552600485015260248401525af180156108fe57611c51575b80611bad565b81611c5b916122c6565b6105a3578438611c4b565b634e487b7160e01b88526011600452602488fd5b90506020813d602011611ca4575b81611c95602093836122c6565b81010312610986575138611be7565b3d9150611c88565b6040513d8a823e3d90fd5b611cd0915060603d60601161094a5761093881836122c6565b91505038611ba5565b6040513d8b823e3d90fd5b9095506020813d602011611d10575b81611d00602093836122c6565b8101031261098657519438611b68565b3d9150611cf3565b60405162461bcd60e51b815260206004820152601660248201527514da59db985d1d5c99481a5cc81b9bdd081d985b1a5960521b6044820152606490fd5b90506020813d602011611d89575b81611d71602093836122c6565b8101031261158c5751801515810361158c5738611b36565b3d9150611d64565b9093506020813d602011611dbf575b81611dad602093836122c6565b81010312610986575192611b24611acb565b3d9150611da0565b503461029257606036600319011261029257806004356001600160401b03811161169357611df990369060040161234f565b6024356001600160401b03811161168f57611e1890369060040161234f565b906044356001600160401b038116810361195157600080516020612ebe8339815191528452602084815260408086203360009081529252902054611e5e9060ff1661258d565b6002546001600160a01b031691611e749061251d565b5491803b156105a3576108dc93858094604051968795869485936320a808ff60e01b855260048501612604565b503461029257602036600319011261029257600435600c548110156104f357611ec9906123c6565b919091611edc576118ae61189a83612431565b634e487b7160e01b81526004819052602490fd5b503461029257604036600319011261029257611f0a612383565b336001600160a01b03821603611f265761062090600435612c68565b63334bd91960e11b8252600482fd5b5034610292576020366003190112610292576004356001600160401b0381116104f357611f696105a091369060040161234f565b600080516020612ebe8339815191528352602083815260408085203360009081529252902054611f9b9060ff1661258d565b612ad8565b503461029257604036600319011261029257610620600435611fc0612383565b90611fdc61061682600052600060205260016040600020015490565b612a4d565b5034610292578060031936011261029257611ffa61294b565b805b600c548110156106205781612013610aec836123c6565b61201b61294b565b6002546001600160a01b0316906120319061251d565b54813b156105ab578291602483926040519485938492631b1bbf1b60e11b845260048401525af180156108fe5761206d575b5050600101611ffc565b81612077916122c6565b6104f3578138612063565b50346102925760203660031901126102925760206120b0600435600052600060205260016040600020015490565b604051908152f35b50346102925780600319360112610292576007546040516001600160a01b039091168152602090f35b5034610292576080366003190112610292576120fb61236d565b50612104612383565b506064356001600160401b0381116104f357612124903690600401612399565b5050604051630a85bd0160e11b8152602090f35b50346102925780600319360112610292576020604051600080516020612ebe8339815191528152f35b5034610292576060366003190112610292576004356001600160401b0381116104f35761219290369060040161234f565b816024356001600160401b0381116104f3576121b290369060040161234f565b916044356001600160401b0381116105ab576121d290369060040161234f565b600080516020612ebe8339815191528352602083815260408085203386529091528320546122029060ff1661258d565b6002546001600160a01b0316916122189061251d565b5491803b156105a757612245948480946040519788958694859363043c4ea360e21b8552600485016125d9565b03925af18015612264576122565780f35b61225f916122c6565b388180f35b50604051903d90823e3d90fd5b9050346104f35760203660031901126104f35760043563ffffffff60e01b81168091036105ab5760209250637965db0b60e01b81149081156122b5575b5015158152f35b6301ffc9a760e01b149050386122ae565b90601f801991011681019081106001600160401b038211176122e757604052565b634e487b7160e01b600052604160045260246000fd5b6001600160401b0381116122e757601f01601f191660200190565b929192612324826122fd565b9161233260405193846122c6565b829481845281830111610986578281602093846000960137010152565b9080601f830112156109865781602061236a93359101612318565b90565b600435906001600160a01b038216820361098657565b602435906001600160a01b038216820361098657565b9181601f84011215610986578235916001600160401b038311610986576020838186019501011161098657565b600c548110156123e157600c60005260206000200190600090565b634e487b7160e01b600052603260045260246000fd5b90600182811c92168015612427575b602083101461241157565b634e487b7160e01b600052602260045260246000fd5b91607f1691612406565b9060405191826000825492612445846123f7565b80845293600181169081156124b3575060011461246c575b5061246a925003836122c6565b565b90506000929192526020600020906000915b81831061249757505090602061246a928201013861245d565b602091935080600191548385890101520191019091849261247e565b90506020925061246a94915060ff191682840152151560051b8201013861245d565b60005b8381106124e85750506000910152565b81810151838201526020016124d8565b90602091612511815180928185528580860191016124d5565b601f01601f1916010190565b60206125369181604051938285809451938492016124d5565b8101600d81520301902090565b906040600319830112610986576004356001600160401b038111610986578261256e9160040161234f565b91602435906001600160401b0382116109865761236a9160040161234f565b1561259457565b60405162461bcd60e51b815260206004820152601c60248201527f53656e646572206973206e6f742074686520636f6e74726f6c6c6572000000006044820152606490fd5b916125f69061236a949284526060602085015260608401906124f8565b9160408184039101526124f8565b9161262a6001600160401b039160409396959685526060602086015260608501906124f8565b9416910152565b908160609103126109865780516001600160a01b03811681036109865791602082015163ffffffff81168103610986576040909201516001600160401b03811681036109865790565b604051906001600160a01b0316806126936060846122c6565b602a83526020830160403682378351156123e157603090538251600110156123e1576078602184015360295b600181116126e957506126d0575090565b63e22e27eb60e01b600052600452601460245260446000fd5b90600f811660108110156123e1576000855184101561274957506f181899199a1a9b1b9c1cb0b131b232b360811b901a8483016020015360041c90801561273357600019016126bf565b634e487b7160e01b600052601160045260246000fd5b634e487b7160e01b81526032600452602490fd5b1561276457565b60405162461bcd60e51b815260206004820152602d60248201527f53656e646572206973206e6f742074686520676c6f62616c207265676973747260448201526c30b91031b7b73a3937b63632b960991b6064820152608490fd5b6001600160401b0381116122e75760051b60200190565b91908110156123e15760051b81013590605e1981360301821215610986570190565b80518210156123e15760209160051b010190565b818110612817575050565b6000815560010161280c565b9190601f811161283257505050565b61246a926000526020600020906020601f840160051c8301931061285e575b601f0160051c019061280c565b9091508190612851565b9190918281146129465761287c83546123f7565b6001600160401b0381116122e75761289e8161289884546123f7565b84612823565b600093601f82116001146128e0576128d192939482916000926128d5575b50508160011b916000199060031b1c19161790565b9055565b0154905038806128bc565b845260208085208386529085209094601f198316815b81811061292e57509583600195969710612915575b505050811b019055565b015460001960f88460031b161c1916905538808061290b565b9192600180602092868b0154815501940192016128f6565b509050565b6001546001600160a01b0316330361295f57565b63118cdaa760e01b6000523360045260246000fd5b60008181526020818152604080832033845290915290205460ff16156129975750565b63e2517d3f60e01b6000523360045260245260446000fd5b6001600160a01b0381166000908152600080516020612e9e833981519152602052604090205460ff16612a47576001600160a01b03166000818152600080516020612e9e83398151915260205260408120805460ff19166001179055339190600080516020612ebe833981519152907f2f8788117e7eff1d82e926ec794901d17c78024a50270940304540a733656f0d9080a4600190565b50600090565b6000818152602081815260408083206001600160a01b038616845290915290205460ff16612ad1576000818152602081815260408083206001600160a01b0395909516808452949091528120805460ff19166001179055339291907f2f8788117e7eff1d82e926ec794901d17c78024a50270940304540a733656f0d9080a4600190565b5050600090565b90600c54680100000000000000008110156122e757806001612afd9201600c556123c6565b612bbc5782516001600160401b0381116122e757612b1f8161289884546123f7565b6020601f8211600114612b5b5781906128d1939495600092612b505750508160011b916000199060031b1c19161790565b0151905038806128bc565b601f1982169083600052806000209160005b818110612ba457509583600195969710612b8b57505050811b019055565b015160001960f88460031b161c1916905538808061290b565b9192602060018192868b015181550194019201612b6d565b634e487b7160e01b600052600060045260246000fd5b6001600160a01b0381166000908152600080516020612e9e833981519152602052604090205460ff1615612a47576001600160a01b03166000818152600080516020612e9e83398151915260205260408120805460ff19169055339190600080516020612ebe833981519152907ff6391f5c32d9c69d2a47ea670b442974b53935d1edc7fd64eb21e047a839171b9080a4600190565b6000818152602081815260408083206001600160a01b038616845290915290205460ff1615612ad1576000818152602081815260408083206001600160a01b0395909516808452949091528120805460ff19169055339291907ff6391f5c32d9c69d2a47ea670b442974b53935d1edc7fd64eb21e047a839171b9080a4600190565b60025460405183516000966001600160a01b03909316946020918391612d15908290849086016124d5565b8101600d815203019020549060018060a01b036007541690843b15612da957869492612d7e9694926001600160401b038793604051998a988997889663a6a2d58160e01b8852600488015260018060a01b0316602487015260a0604487015260a48601906124f8565b92606485015216608483015203925af180156108fe57612d9c575050565b81612da6916122c6565b50565b8680fd5b60025460408051631b283e0560e21b81526001600160a01b0393841660048201526024810191909152604481018590529460009486949290931692849260649184918190838501378181018301889052601f01601f191681010301925af1908115612e9157600091612e1d575090565b903d8082843e612e2d81846122c6565b8201916020818403126104f3578051906001600160401b0382116105ab570182601f820112156104f357805191612e63836122fd565b93612e7160405195866122c6565b8385526020848401011161029257509061236a91602080850191016124d5565b6040513d6000823e3d90fdfed4b1ef424fcb83dce82b8e6790fbd9bbcd76978bd34427cec18daa7ab21675437b765e0e932d348852a6f810bfa1ab891e259123f02db8cdcde614c570223357a264697066735822122025911669ff7d9986fabc86fd67f9f39045f122ed46435e6ebf3eab2fffd5598b64736f6c634300081a00332f8788117e7eff1d82e926ec794901d17c78024a50270940304540a733656f0dd4b1ef424fcb83dce82b8e6790fbd9bbcd76978bd34427cec18daa7ab2167543ad3228b676f7d3cd4284a5443f17f1962b36e491b30a40b2405849e597ba5fb5",
  "linkReferences": {},
  "deployedLinkReferences": {}
}